:03000000020946AC
:0C094600787FE4F6D8FD758124020800DB
:0808E100C2A5D2A77F017E0031
:1008E900E4FDFCC3ED9FEC9E5015E4FBFA0BBB0045
:0F08F900010AEB64724A70F50DBD00010C80E43A
:0109080022CC
:0D092C008F80C2A61208E1C2A70F0208E9E1
:0D0939008F80D2A61208E1C2A70F0208E9C4
:060884008B1B8A1C891D7C
:10088A00E4F51EF51FAB1BAA1CA91D851F82851E38
:10089A00831208B4FFFD3395E04D600D1209390546
:0908AA001FE51F70E0051E80DC53
:0108B3002222
:10084B008F208D218B228A238924EF3395E04F70E3
:10085B0008E521540F44808013AF20EF3395E0FE61
:10086B00EF64014E700AE521540F44C0FF12092CAE
:09087B00AB22AA23A9240208847F
:100909007F147E001208E91208E97F3812092C7F4A
:100919000C12092C7F0612092C7F0112092C7F80E9
:0309290002092C94
:10080000120909758920758DFD759850E4F587D218
:100810008EE4F518C3E5189410748094805010305D
:1008200098FDC29874082518F8A699051880E5E483
:10083000F519C3E51994107480948050D474082578
:0B08400019F8E6FF120939051980E7DE
:1008B400BB010CE58229F582E5833AF583E02250F9
:1008C40006E92582F8E622BBFE06E92582F8E22243
:0D08D400E58229F582E5833AF583E493225D
:00000001FF
