:030000000208B63D
:0C08B600787FE4F6D8FD7581070208A1E8
:1008A10075A88520B005B2A112088020B1F5B2A0CB
:0508B10012088080EE3A
:03000300020800F0
:10080000C0E0C0F0C083C082C0D075D000C000C0BE
:1008100001C002C003C004C005C006C00730B30257
:10082000B2A2120880D007D006D005D004D003D0E1
:1008300002D001D000D0D0D082D083D0F0D0E0322E
:03001300020840A0
:10084000C0E0C0F0C083C082C0D075D000C000C07E
:1008500001C002C003C004C005C006C00730B20218
:10086000B2A3120880D007D006D005D004D003D0A0
:1008700002D001D000D0D0D082D083D0F0D0E032EE
:10088000758901E4FFFE758CF8758ACCD28C308DA9
:10089000FDC28CC28D0FBF00010EEF64C84E70E622
:0108A0002235
:00000001FF
