:0300000002041ADD
:0C041A00787FE4F6D8FD758130020461A3
:0E05C00020534552564F20414E474C452000D7
:100526000114000808000C0008000400001415005F
:100536003F0006005B004F0066006D007D0007006F
:030546007F0067CC
:10054A007FC41205CE7F441205B67F451205B67FD9
:10055A00471205B67F521205B67F451205B67F458A
:03056A000205B6D1
:0804D900C2A5D2A77F017E003D
:1004E100E4FDFCC3ED9FEC9E5015E4FBFA0BBB0051
:0F04F100010ABA04F8BBFBF50DBD00010C80E455
:0105000022D8
:10056D00D28EE4FDFCC3ED9FEE6480F8EC648098C0
:10057D00500C308FFDC28F0DBD00010C80E7C28E77
:01058D00224B
:10035D007F381205CE7F0E1205CE7F011205CE75A8
:10036D008920758DE9C290752D157BFF7A0579C0B1
:10037D0012050112054AAF2DEF3395E0FEC3EF9440
:10038D0068EE648094804005752D15800A20B002BA
:10039D00052D20B102152D7FC01205CEAF2DEF33E7
:1003AD0095E0FEEF24EBFDEE34FFFC12010EE4FBB5
:1003BD00FA792078401200031201478E2B8F2C12F0
:1003CD0004A6E4F529F52AC3E52A9432E5296480CB
:1003DD00948050A2D290AF2DEF3395E0FE12056DB3
:1003ED00C2907F687E0112056DAF2C12058ED3E58C
:1003FD002C94B4E52B648094804005E4F52BF52C0A
:0D040D0012027A052AE52A70BE052980BA80
:0404A6008E2E8F2FD8
:1004AA007D641205ADAE2EAF2F7C007D641201E192
:1004BA008C2E8D2FAE2EAF2F7D0A1205ADAE2EAF2C
:0F04CA002F7C007D0A1201E1ED2430FF0205B600
:0A05CE008F80C2A61204D9C2A72232
:0905AD007C001201E1EF2430FF93
:0A05B6008F80D2A61204D9C2A7223A
:100501008B2E8A2F8930AB2EAA2FA9301201C860F9
:10051100130530E5307002052F14F91201C8FF12DE
:0505210005B680E22296
:10058E007D037C00EF601775F00A8474102DF8A6B9
:0E059E00F0EF75F00A84FFED1D70E91C80E699
:0105AC00222C
:10027A0074102514F8E6B40A00400302034C9002F5
:10028A008FF82828730202AD0202BE0202CE0202D1
:10029A00DE0202EE0202FE02030E02031E02032E19
:1002AA0002033EE51425E02408F808E6F5A08516C1
:1002BA008002034CE51425E02408F808E6F5A08539
:1002CA001880807EE51425E02408F808E6F5A08564
:1002DA001A80806EE51425E02408F808E6F5A08562
:1002EA001C80805EE51425E02408F808E6F5A08560
:1002FA001E80804EE51425E02408F808E6F5A0855E
:10030A002080803EE51425E02408F808E6F5A0855B
:10031A002280802EE51425E02408F808E6F5A08559
:10032A002480801EE51425E02408F808E6F5A08557
:10033A002680800EE51425E02408F808E6F5A08555
:10034A0028800514D3E5149403748094804003E450
:03035A00F5142275
:10000300EC4D6011E8497017ED33EC3304600DE4F7
:10001300FCFFFEFD22E933E8330470F80201B3125A
:10002300017E58046009E4CC24815006285009025B
:1000330001BD2840030201BAC0E0EB4A7044B98015
:1000430006D0E0FB0201A9EF4E701CBD8008EBFF58
:10005300EAFEE9FD80EBE98DF0A4FEE5F00200EC99
:10006300E9CDF9EAFEEBFFEF89F0A4FCE5F0CE89D8
:10007300F0A42EFFE435F0CD89F0A42DFEE435F095
:100083008067EF4E7005BD80D780C3EF8BF0A4ACC3
:10009300F0EE8BF0A42CFCE435F0F8EF8AF0A42CFE
:1000A300E5F038FCE433CB8DF0A42CFCE5F03BF811
:1000B300EE8AF0A42CFCE5F038F8E433CF89F0A401
:1000C3002CFCE5F038CF3400CE89F0A42FFFE5F007
:1000D3003EFEE433C98DF0A42EFEE5F039CD8AF05F
:1000E300A42FFFE5F03EFEE43DFD33D0E0FB5007D7
:1000F3000BBB000F0201BDEC2CFCEF33FFEE33FE14
:06010300ED33FD02019541
:1001090075F020800E75F010800575F0087D007E71
:10011900007F003392D530D503120217EC3340101B
:10012900EF33FFEE33FEED33FDEC33FCD5F0ED227A
:0E013900E5F0247EA2D513CC92E7CDCEFF22B6
:10014700EDD2E7CD33EC3392D524814006E4FFFEB0
:10015700FDFC22FCE4CFCECDCC24E0501174FF800F
:10016700EDC3CC13CCCD13CDCE13CECF13CF0470AC
:07017700F030D5DE02021793
:10017E00E9D2E7C933E833F892D5EDD2E7CD33ECC7
:07018E0033FC5002B2D52240
:10019500EC30E7100FBF000C0EBE00080DBD0004CB
:1001A5000BEB6014A2D5EB13FCED92E7FD2274FF77
:1001B500FCFDFEFF22E480F8A2D574FF13FC7D80D0
:0301C500E480EFE4
:1004260002035DE493A3F8E493A34003F68001F28C
:1004360008DFF48029E493A3F85407240CC8C333D7
:10044600C4540F4420C8834004F456800146F6DFA6
:10045600E4800B0102040810204080900526E47E0B
:10046600019360BCA3FF543F30E509541FFEE4939B
:10047600A360010ECF54C025E060A840B8E493A362
:10048600FAE493A3F8E493A3C8C582C8CAC583CA8D
:10049600F0A3C8C582C8CAC583CADFE9DEE780BE45
:0105490000B1
:1001C800BB010689828A83E0225002E722BBFE0235
:0901D800E32289828A83E4932268
:1001E100C2D5EC30E709B2D5E4C39DFDE49CFCEE39
:1001F10030E715B2D5E4C39FFFE49EFE120225C38A
:10020100E49DFDE49CFC800312022530D507C3E484
:060211009FFFE49EFE22A7
:0E021700C3E49FFFE49EFEE49DFDE49CFC22F8
:10022500BC000BBE0029EF8DF084FFADF022E4CCBD
:10023500F875F008EF2FFFEE33FEEC33FCEE9DEC86
:10024500984005FCEE9DFE0FD5F0E9E4CEFD22EDCC
:10025500F8F5F0EE8420D21CFEADF075F008EF2F16
:10026500FFED33FD4007985006D5F0F222C398FD07
:050275000FD5F0EA22A4
:00000001FF
