:03000000020C628D
:0C0C6200787FE4F6D8FD758152020A1379
:100AD9004577696E677300416E696D6174696F6E00
:100AE900000103070D0F02050A10181C161E081431
:100AF9000A0103070D0F05080410181C161E14021D
:100B0900040000000000001818000000000606009C
:100B19000000000303000000000018180000000096
:010B290000CB
:080BD400C2A1D2A27F017E0044
:100BDC00E4FDFCC3ED9FEC9E5015E4FBFA0BBB004F
:0F0BEC00010AEB64704A70F50DBD00010C80E446
:010BFB0022D7
:0E0C46008F90C2A0120BD4C2A27F05020BDC5D
:0E0C54008F90D2A0120BD4C2A27F05020BDC3F
:060BA4008B088A09890A92
:100BAA00E4F50BF50CAB08AA09A90A850C82850B9A
:100BBA00831208F6FFFD3395E04D600D120C5405C3
:090BCA000CE50C70E0050B80DC69
:010BD30022FF
:100B6B008F4C8D4D8B4E8A4F8950EF3395E04F70E4
:100B7B0008E54D540F44808013AF4CEF3395E0FEE6
:100B8B00EF64014E700AE54D540F44C0FF120C4642
:090B9B00AB4EAA4FA950020BA4B5
:100BFC007F147E00120BDC7F38120C467F0C120C1B
:100C0C00467F06120C467F01120C467F80020C4672
:070C35007FC87E00120BDCFA
:0A0C3C007F01120C467F80020C4677
:060B2A008B488A49894A4C
:100B3000EFC39408748094805030EF75F008A424BB
:100B400040FF120C46E4F54BC3E54B9408748094C7
:100B5000805017AB48AA49A94A854B827583001279
:0A0B600008F6FF120C54054B80DE6E
:010B6A002268
:0A0C6E00E4FF120C547F01020C5445
:0A0C78007F02120C547F03020C549B
:080C1C00120C46120C6EAF52DF
:100C2400A907E551540F4480FF120C46AF01020C92
:010C3400546B
:100A1300120BFC7BFF7A0A79D9120BA47FC3120C49
:100A2300467BFF7A0A79E0120BA47F2C7E01120B1E
:100A3300DC1209237551C17551C1755204AF5105BB
:100A430051120C1CC3E55294077480948050040522
:100A5300528003755204120C35AF510551120C46E6
:100A6300120C78AF52120C24C3E55294077480948D
:100A730080500405528003755207120C35C3E551AB
:100A830094CE7480948040B5AF511551120C1CC3A1
:100A9300E552940774809480500405528003755284
:100AA30004120C35AF511551120C46120C78AF528B
:100AB300120C24C3E55294077480948050040552A9
:100AC3008003755207120C35D3E55194C274809498
:060AD3008050B5020A3A52
:1009230078087C007D007BFF7A0A79EA7E007F08E5
:100933001208D078107C007D007BFF7A0A79F27E62
:10094300007F081208D078187C007D007BFF7A0AAC
:1009530079FA7E007F081208D078207C007D007B26
:10096300FF7A0B79027E007F081208D078287C007A
:100973007D007BFF7A0B790A7E007F081208D0780E
:10098300307C007D007BFF7A0B79127E007F08129A
:1009930008D078387C007D007BFF7A0B791A7E00C3
:1009A3007F081208D078407C007D007BFF7A0B79AA
:1009B300227E007F081208D07B007A007908E4FFCA
:1009C300120B2A7B007A0079107F01120B2A7B001D
:1009D3007A0079187F02120B2A7B007A0079207F34
:1009E30003120B2A7B007A0079287F04120B2A7BDF
:1009F300007A0079307F05120B2A7B007A00793860
:100A03007F06120B2A7B007A0079407F07020B2AAC
:10080000E709F608DFFA8046E709F208DFFA803EDA
:1008100088828C83E709F0A3DFFA8032E309F608C7
:10082000DFFA8078E309F208DFFA807088828C832F
:10083000E309F0A3DFFA806489828A83E0A3F608E3
:10084000DFFA805889828A83E0A3F208DFFA804CBD
:1008500080D280FA80C680D4806980F28033801094
:1008600080A680EA809A80A880DA80E280CA8033FD
:1008700089828A83ECFAE493A3C8C582C8CCC58375
:10088000CCF0A3C8C582C8CCC583CCDFE9DEE78045
:100890000D89828A83E493A3F608DFF9ECFAA9F0C4
:1008A000EDFB2289828A83ECFAE0A3C8C582C8CC1A
:1008B000C583CCF0A3C8C582C8CCC583CCDFEADE33
:1008C000E880DB89828A83E493A3F208DFF980CC95
:1008D00088F0EF60010E4E60C388F0ED2402B4048E
:1008E0000050B9F582EB2402B4040050AF23234535
:0608F00082239008507302
:1008F600BB010CE58229F582E5833AF583E02250B7
:1009060006E92582F8E622BBFE06E92582F8E22200
:0D091600E58229F582E5833AF583E493221A
:00000001FF
