:03000000020BA749
:0C0BA700787FE4F6D8FD7581510208004B
:100A4900437573746F6D2063686172204C43440071
:100A5900000A15110A040000041F11111F1F1F1F8E
:100A6900040E0E0E1F0004000103071F1F070301D8
:100A790001030509090B1B180A0A1F11110E0404A9
:100A890000000A0004110E00000A1F1F0E040000D6
:080B4300C2A5D2A77F017E00CC
:100B4B00E4FDFCC3ED9FEC9E5015E4FBFA0BBB00E0
:0F0B5B00010AEB64704A70F50DBD00010C80E4D7
:010B6A002268
:0E0B8B008F80C2A6120B43C2A77F05020B4B40
:0E0B99008F80D2A6120B43C2A77F05020B4B22
:060B13008B488A49894A63
:100B1900E4F54BF54CAB48AA49A94A854C82854B6B
:100B290083120A1CFFFD3395E04D600D120B9905E8
:090B39004CE54C70E0054B80DC3A
:010B42002290
:100ADA008F4D8D4E8B4F8A508951EF3395E04F7071
:100AEA0008E54E540F44808013AF4DEF3395E0FE76
:100AFA00EF64014E700AE54E540F44C0FF120B8B8F
:090B0A00AB4FAA50A951020B13D4
:100B6B007F147E00120B4B7F38120B8B7F0C120BFA
:100B7B008B7F06120B8B7F01120B8B7F80020B8BF3
:060A99008B488A49894ADE
:100A9F00EFC39408748094805030EF75F008A4244D
:100AAF0040FF120B8BE4F54BC3E54B940874809415
:100ABF00805017AB48AA49A94A854B82758300120B
:0A0ACF000A1CFF120B99054B80DE94
:010AD90022FA
:1008000078087C007D007BFF7A0A79597E007F089A
:100810001209F678107C007D007BFF7A0A79617EF0
:10082000007F081209F678187C007D007BFF7A0AA9
:1008300079697E007F081209F678207C007D007BB4
:10084000FF7A0A79717E007F081209F678287C0009
:100850007D007BFF7A0A79797E007F081209F6789D
:10086000307C007D007BFF7A0A79817E007F081250
:1008700009F678387C007D007BFF7A0A79897E0052
:100880007F081209F678407C007D007BFF7A0A79A8
:10089000917E007F081209F6120B6B7B007A0079BB
:1008A00008E4FF120A997B007A0079107F01120A8E
:1008B000997B007A0079187F02120A997B007A00EE
:1008C00079207F03120A997B007A0079287F04122D
:1008D0000A997B007A0079307F05120A997B007AA9
:1008E0000079387F06120A997B007A0079407F07E9
:1008F000120A997F80120B8B7BFF7A0A7949120BBF
:10090000137FC0120B8BE4F9E9FF3395E0FEC3EFD0
:100910009408EE64809480500B120B997F20120B88
:06092000990980E480FE4D
:10092600E709F608DFFA8046E709F208DFFA803EB3
:1009360088828C83E709F0A3DFFA8032E309F608A0
:10094600DFFA8078E309F208DFFA807088828C8308
:10095600E309F0A3DFFA806489828A83E0A3F608BC
:10096600DFFA805889828A83E0A3F208DFFA804C96
:1009760080D280FA80C680D4806980F2803380106D
:1009860080A680EA809A80A880DA80E280CA8033D6
:1009960089828A83ECFAE493A3C8C582C8CCC5834E
:1009A600CCF0A3C8C582C8CCC583CCDFE9DEE7801E
:1009B6000D89828A83E493A3F608DFF9ECFAA9F09D
:1009C600EDFB2289828A83ECFAE0A3C8C582C8CCF3
:1009D600C583CCF0A3C8C582C8CCC583CCDFEADE0C
:1009E600E880DB89828A83E493A3F208DFF980CC6E
:1009F60088F0EF60010E4E60C388F0ED2402B40467
:100A06000050B9F582EB2402B4040050AF2323450D
:060A1600822390097673B3
:100A1C00BB010CE58229F582E5833AF583E022508F
:100A2C0006E92582F8E622BBFE06E92582F8E222D9
:0D0A3C00E58229F582E5833AF583E49322F3
:00000001FF
