:030000000208AA49
:0C08AA00787FE4F6D8FD75810C02080090
:0F0870007F0F12088E7F3812088E7F0102088ECC
:0E088E008F80C2A6C2A5D2A712087FC2A722E1
:0E089C008F80D2A6C2A5D2A712087FC2A722C3
:100832008B088A09890AAB08AA09A90A1208576013
:1008420013050AE50A7002050914F9120857FF1286
:05085200089C80E22279
:0E087F00E4FFFE0FBF00010EBE2EF8BFE1F534
:01088D002248
:100800001208707F4012088EE4FF12089C7F0A12C3
:10081000089C7F1512089C7F1112089C7F0A120801
:100820009C7F0412089CE4FF12089CE4FF12089CC1
:0208300080D175
:10085700BB010689828A83E0225002E722BBFE029F
:09086700E32289828A83E49322D2
:00000001FF
