:030000000203DB1D
:0C03DB00787FE4F6D8FD75811202042240
:1005FC0053494D504C450043414C43554C41544F8D
:0B060C005200696E66696E6974790027
:0B06440002090000020B00000108008A
:100630007F801206507F381206507F011206507FCD
:040640000C02065052
:0A0650008F80C2A6120595C2A722F2
:1005E100AE10AF117C001205148E0E8F0FEF243068
:0105F100FF0A
:0A05F2008F80D2A6120595C2A72241
:06059500C2A5D2A77F14ED
:10059B00E4FDFCEFFBC3ED9BEC94005015E4FBFA80
:1005AB000BBB00010ABA04F8BBFBF50DBD00010C37
:0205BB0080E1DD
:0105BD00221B
:1005BE008B108A118912AB10AA11A9121204E9FF2D
:1005CE0060101205F274012512F512E43511F511C1
:0305DE0080E42294
:100569007590F01206307BFF7A0579FC1205BE7F83
:10057900C31206507BFF7A0679031205BE7FC812A3
:0C05890006177F0112065012000380FBD1
:10000300C290D293D292D29120943C7F20120617B1
:100013002094347F371205F2E5087015AE09AF0A54
:10002300FC7D0A120502EF2407F50AE43EF5098078
:10003300DFAE0BAF0C7C007D0A120502EF2407F53F
:100043000CE43EF50B80C920953C7F201206172057
:1000530095347F381205F2E5087015AE09AF0AFC36
:100063007D0A120502EF2408F50AE43EF50980DF54
:10007300AE0BAF0C7C007D0A120502EF2408F50CD1
:10008300E43EF50B80C920963C7F2012061720968C
:10009300347F391205F2E5087015AE09AF0AFC7D0D
:1000A3000A120502EF2409F50AE43EF50980DFAEE2
:1000B3000BAF0C7C007D0A120502EF2409F50CE45A
:1000C3003EF50B80C92097157F2012061720970D48
:1000D3007508017F2F1205F2750D2F80F0C291D2A2
:1000E30093D292D29020943C7F201206172094340E
:1000F3007F341205F2E5087015AE09AF0AFC7D0ADC
:10010300120502EF2404F50AE43EF50980DFAE0B85
:10011300AF0C7C007D0A120502EF2404F50CE43ECB
:10012300F50B80C920953C7F201206172095347F5C
:10013300351205F2E5087015AE09AF0AFC7D0A1207
:100143000502EF2405F50AE43EF50980DFAE0BAFA7
:100153000C7C007D0A120502EF2405F50CE43EF544
:100163000B80C920963C7F201206172096347F36D9
:100173001205F2E5087015AE09AF0AFC7D0A1205F7
:1001830002EF2406F50AE43EF50980DFAE0BAF0C5F
:100193007C007D0A120502EF2406F50CE43EF50B04
:1001A30080C92097157F2012061720970D75080127
:1001B3007F781205F2750D7880F0C292D293D290B7
:1001C300D29120943C7F201206172094347F311261
:1001D30005F2E5087015AE09AF0AFC7D0A120502A7
:1001E300EF2401F50AE43EF50980DFAE0BAF0C7C8A
:1001F300007D0A120502EF2401F50CE43EF50B80A5
:10020300C920953C7F201206172095347F321205B2
:10021300F2E5087015AE09AF0AFC7D0A120502EF7C
:100223002402F50AE43EF50980DFAE0BAF0C7C0037
:100233007D0A120502EF2402F50CE43EF50B80C99A
:1002430020963C7F201206172096347F331205F246
:10025300E5087015AE09AF0AFC7D0A120502EF240A
:1002630003F50AE43EF50980DFAE0BAF0C7C007D9D
:100273000A120502EF2403F50CE43EF50B80C920B6
:1002830097157F2012061720970D7508017F2D12F1
:1002930005F2750D2D80F0C293D290D292D29120A7
:1002A300941A7F201206172094127F01120650E43D
:1002B300F50BF50CF509F50AF50880EB2095327F6F
:1002C3002012061720952A7F301205F2E5087010D8
:1002D300AE09AF0AFC7D0A1205028E098F0A80E47B
:1002E300AE0BAF0C7C007D0A1205028E0B8F0C80C7
:1002F300D32096127F2012061720960A7F3D1205FF
:10030300F212046780F32097157F201206172097B7
:0F0313000D7508017F2B1205F2750D2B80F0225E
:10061700E4FEEEC39F5011E4FDFC0DBD00010CED9F
:0806270064464C70F50E80EAF8
:01062F0022A8
:100467007FC0120650E50DB42B0DE50A250CFFE5FC
:1004770009350BFE120322E50DB42D29D3E50A95A4
:100487000CE509950B400BE50A950CFFE509950B63
:10049700800F7F2D1205F2C3E50C950AFFE50B953A
:1004A70009FE120322E50DB42F24E50C450B60105D
:1004B700AC0BAD0CAE09AF0A120514120322800E65
:1004C7007F011206507BFF7A06790E1205BEE50DF5
:1004D700B4780EAC0BAD0CAE09AF0A1205021203CD
:0204E7002222CF
:100322008E108F11D3E511940FE510942740187C9D
:10033200277D101205E7AE10AF117C277D10120544
:10034200148C108D118015D3E51194E7E5109403F8
:100352004026E511940FE5109427501CAE10AF1102
:100362007C037DE81205E7AE10AF117C037DE81235
:1003720005148C108D118015D3E5119463E510944A
:10038200004020E51194E7E510940350167D6412B5
:1003920005E1AE10AF117C007D641205148C108D46
:1003A200118015D3E5119409E51094004022E5115E
:1003B2009463E510940050187D0A1205E1AE10AF67
:1003C200117C007D0A1205148C0E8D0FE50F800240
:0903D200E5112430FF1205F222AE
:1003E700020569E493A3F8E493A34003F68001F2BE
:1003F70008DFF48029E493A3F85407240CC8C33317
:10040700C4540F4420C8834004F456800146F6DFE5
:10041700E4800B0102040810204080900644E47E2B
:10042700019360BCA3FF543F30E509541FFEE493DA
:10043700A360010ECF54C025E060A840B8E493A3A1
:10044700FAE493A3F8E493A3C8C582C8CAC583CACC
:10045700F0A3C8C582C8CAC583CADFE9DEE780BE84
:01064F0000AA
:1004E900BB010689828A83E0225002E722BBFE0211
:0904F900E32289828A83E4932244
:10050200EF8DF0A4A8F0CF8CF0A428CE8DF0A42E0D
:02051200FE22C7
:10051400BC000BBE0029EF8DF084FFADF022E4CCCB
:10052400F875F008EF2FFFEE33FEEC33FCEE9DEC94
:10053400984005FCEE9DFE0FD5F0E9E4CEFD22EDDA
:10054400F8F5F0EE8420D21CFEADF075F008EF2F24
:10055400FFED33FD4007985006D5F0F222C398FD15
:050564000FD5F0EA22B2
:00000001FF
