:0300000002080CE7
:0C080C00787FE4F6D8FD75817C0208536B
:10068D004B455950414944002044495341424C4542
:10069D0044200050415353574F5244204348414E3C
:1006AD00474500202020204D4F4F44202020200082
:1006BD00456E746572206F6C6420706173732000D9
:1006CD00456E746572206E657720706173732000BE
:1006DD002057524F4E472050415353574F524420AD
:1006ED000050617373206368616E676520005772F7
:1006FD006F6E6720417474656D707420004B4559A1
:10070D00504149442044495341424C4500205045F5
:10071D00524D414E454E54202000454E54455220D9
:10072D004741544520504153530050494E20434FAB
:10073D00525245435400444F4F52204F50454E4561
:0C074D00440057524F4E472050494E00C8
:1008E50005620000000000012C0002510000021CFE
:1008F500000020212D4445415220454D504C4F5973
:10090500455320594F55522050415353574F524448
:100915002049532020000A0D0000000000000000BF
:050925000000011700B5
:100A5600E4F567F568742D2568F8E6F5993099FD93
:100A6600C2997F647E00120A890568E568700205EE
:0B0A760067C39406E567940040DB2294
:080759008F6C8E6B8D6A8C69B8
:10076100E4757101F570F56FF56EFFFEFDFCAB6C84
:10077100AA6BA96AA869C3120367700A7F30120BBA
:10078100A87F01020BA8AF71AE70AD6FAC6EAB6C00
:10079100AA6BA96AA869C3120367401D056DAF71F1
:1007A100AE70AD6FAC6EE47B0AFAF9F812024A8FB3
:1007B100718E708D6F8C6E80CD156DAF6DEF339531
:1007C100E0C3648094804039E47B0AFAF9F8AF6CA5
:1007D100AE6BAD6AAC691202D5EB2430FF740D2506
:1007E1006DF8A607AF6CAE6BAD6AAC69E47B0AFA33
:1007F100F9F81202D58F6C8E6B8D6A8C69156D803C
:0A080100BA7B007A00790D120AD0CC
:01080B0022CA
:100AF500D28EE4FDFCC3ED9FEE6480F8EC64809833
:100B0500500C308FFDC28F0DBD00010C80E7C28EE9
:010B150022BD
:1000030075A882758902758CE9C2A0C2A1120BF092
:10001300120B37120898EE3395E0FDFCEF24A0FF96
:10002300EE3486FEED3401FDE43C8F618E608D5F1E
:10003300F55EAD617F017E00120AA9AF61AE60ADCE
:100043005FAC5E120759E51714605A1460661470AA
:1000530003020100240370EE758920758DFD7598E8
:1000630050D28EE4F557C3E557942774809480509B
:1000730011742D2557F8E6F5993099FDC299055766
:1000830080E4E4F557C3E557940E748094805011CF
:10009300740D2557F8E6F5993099FDC299055780F7
:1000A300E4051780A17F01120BA81209BA7F011280
:1000B3000BA88092054EC3E54E9402748094805041
:1000C3001C7F02120BA87BFF7A06798D120AD07F60
:1000D300C0120BA87BFF7A067995120AD0D2957FBE
:1000E300027E00120A89C2957F017E00120A89D21C
:1000F3009530B103020049751703020049C3E52C8B
:100103009403748094804003020205E4F5797F022E
:10011300120BA87F01120BA87BFF7A0679A0120AA3
:10012300D07FE87E03120A2B7FC0120BA87BFF7AD5
:100133000679B0120AD07F107E27120A2B7F011294
:100143000BA87BFF7A0679BD120AD0E4F57A7FC04B
:10015300120BA81205B4AF1BAE1AAD19AC18AB61E4
:10016300AA60A95FA85EC312036770327F01120BF6
:10017300A87BFF7A0679CD120AD07FC0120BA87F25
:10018300647E00120A891205B4851B61851A608595
:10019300195F85185EE4F558F559F54E805B052C1B
:1001A3007F01120BA87BFF7A0679DD120AD07F014B
:1001B300120BA87BFF7A0679EE120AD07FC0120BCE
:1001C300A87BFF7A0679FB120AD0E4755D01F55C22
:1001D300F55BF55AE52C2430FF120BE67F107E27E2
:1001E300120A2B7517017F01120BA8E52C6403700B
:1001F30003751702E4F558F559E4F54E7517010236
:1002030000497BFF7A07790A120AD07FC0120BA834
:0C0213007BFF7A07791A120AD00200491A
:1005B40012049AEF3395E0F54F8F50E57A60030209
:1005C400068C12049A8F1E12049A8F1F12049A8F9B
:1005D4002012049A8F2112049A8F27AE4FAF50E451
:1005E400FCFD7BA07A867901F812024AC004A905B1
:1005F400AA06AB07AF1E7E007C277D10120238E4EA
:10060400FCFDD000EB2FFFEA3EFEED39FDEC38FC9B
:10061400C004A905AA06AB07AF1F7E007C037DE8D2
:10062400120238E4FCFDD000EB2FFFEA3EFEED3968
:10063400FDEC38FCA804A905AA06AB07E52075F073
:1006440064A4FFE4FCFDEB2FFFEA35F0FEED39FD79
:10065400EC38FCA804A905AA06AB07E52175F00A45
:10066400A4FFE4FCFDEB2FFBEA35F0FAED39F9ECDD
:1006740038F8E4FEEB2527FFEE3AFEED39FDEC38C1
:090684008F1B8E1A8D19F5182246
:1009BA007BFF7A077927120AD07FC0120BA820B1D1
:1009CA00037517031205B4E57A701C851B5D851A39
:1009DA005C85195B85185A20B1037517037FE87E79
:0809EA0003120A2B120378220C
:10037800AF5DAE5CAD5BAC5AAB61AA60A95FA85E2D
:10038800C3120367600302043E7FE87E03120A2B50
:100398007F01120BA87F81120BA87BFF7A077937A0
:1003A800120AD0E4F555F556D2B07F787E00120ACD
:1003B800F5C2B07FD07E02120AF57517010556E521
:1003C8005670020555C3943CE555940040DAE4F5AF
:1003D80053F554D2957F027E00120A89C2957F0197
:1003E8007E00120A890554E55470020553C394B07F
:1003F800E553940440DDD2957FC1120BA87BFF7AA8
:10040800077943120AD0E4F555F556D2B07F177E26
:1004180000120AF5C2B07F680E120AF5E4F553F52A
:10042800540556E55670020555C3943CE5559400AD
:1004380040D9751701220559E559700205587F0101
:10044800120BA87F80120BA87BFF7A07794F120A3C
:10045800D07F647E00120A2B7FC0120BA87BFF7A24
:100468000679FB120AD0E5592430FF120BE6AD5984
:100478007F027E00120AA9751701E55964034558E1
:1004880070087517027F01120BA87F107E27120AC9
:020498002B2215
:100B97007589018D8A8F8CD28C308DFDC28CC28D68
:010BA700222B
:040B1600AE05AC0775
:100B1A00E4FBFAD295AF04AD06120B97C295120BFD
:0C0B2A00970BBB00010ABA03EABBE8E726
:010B3600229C
:100B37007F147E00120A897F38120BA87F0E120BD2
:100B4700A87F06120BA87F01120BA87F80020BA8B3
:100AD0008B728A738974AB72AA73A97412021F6035
:100AE000130574E5747002057314F912021FFF12E6
:050AF0000BE680E2228C
:100BA8008F80C2A6120A81C2A77F057E00020A8929
:0A0BE6008F80D2A6120A81C2A72256
:080A8100C2A5D2A77F017E008F
:100A8900E4FDFCC3ED9FEC9E5015E4FBFA0BBB00A3
:0F0A9900010AEB64704A70F50DBD00010C80E49A
:010AA800222B
:06092A00017A00017900D2
:040A27007FE87E03E3
:040A2B00AD07AC0661
:100A2F00E4FBFAED25E0FFEC33FEC3EB9FEA9E50AB
:100A3F0015E4FFFE0FBF00010EEF640A4E70F50BB9
:060A4F00BB00010A80DD7E
:010A5500227E
:10049A00E4FFFEEF4E60030205B1C290D291D29200
:1004AA00D29320940302058720950302058720969C
:1004BA000B7F38120BE6120A277F082220970B7F40
:1004CA0034120BE6120A277F0422D290C291D292EA
:1004DA00D29320940C7F30120BE6120A277F011F59
:1004EA002220950302058720960B7F37120BE6120E
:1004FA000A277F072220970B7F33120BE6120A275F
:10050A007F0322D290D291C292D29320940B7F3948
:10051A00120BE6120A277F0922209502805F209695
:10052A000B7F36120BE6120A277F062220970C7FD2
:10053A0032120BE6120A277F010F22D290D291D2F1
:10054A0092C2932094340579D3E579940574809402
:10055A008040117F587E1B120A2B751703757A018A
:10056A007E007F01C3E579940574809480500B7FE7
:10057A00587E1B120A2B7E007F0120950B7F2312C7
:10058A000BE6120A277F232220960B7F35120BE6F1
:10059A00120A277F052230970302049D7F31120B2E
:0905AA00E6120A277F01227F00FE
:0105B3002225
:060B5700C2A17F197E001F
:100B5D00E4FDFCC3ED9FEC9E50070DBD00010C8024
:010B6D00F295
:010B6E002264
:050BF000D2A0D2A122F9
:100BB800D2A0D2A17F327E00120B5DC2A0020B5DD3
:100B6F00120B57D2A0120B5DD2A1120B5DC2A07F48
:040B7F0032020B5DD6
:100B8300120B57C2A0120B5DD2A1120B5DD2A07F34
:040B930032020B5DC2
:0F0BC800120B57C2A0120B5DD2A17F32020B5D40
:0F0BD700120B57D2A0120B5DD2A17F32020B5D21
:02093100AB0712
:10093300E4FAEAC39408748094805029C2A17F32F8
:100943007E00120B5DA802EB088002C333D8FC3093
:10095300E704D2A08002C2A0120B59D2A17F3212A7
:100963000B5D0A80CDC2A1C2A0120B59D2A17F3266
:05097300120B5DA2A0C3
:01097800225C
:10097900E4FBFAEAC39408748094805031C2A1D28E
:10098900A07F327E00120B5DD2A17F19120B5DA2EE
:10099900A0E433F9C374079AFFF8E9088002C33366
:1009A900D8FC42037F327E00120B5D0A80C5AF037B
:0109B900221B
:100AA9008E698F6AA90580077FA012093150051246
:100AB9000BB880F4E569FF120931AF6A120931AF49
:070AC90001120931020B8349
:0409F2008E7B8F7CED
:1009F600E4F980077FA01209315005120BB880F484
:100A0600E57BFF120931AF7C120931120B6F7FA112
:100A1600120931120979A907120BD7120B83AF01FC
:010A260022AD
:10081800020003E493A3F8E493A34003F68001F2F3
:1008280008DFF48029E493A3F85407240CC8C333E1
:10083800C4540F4420C8834004F456800146F6DFB0
:10084800E4800B01020408102040809008E5E47E53
:10085800019360BCA3FF543F30E509541FFEE493A5
:10086800A360010ECF54C025E060A840B8E493A36C
:10087800FAE493A3F8E493A3C8C582C8CAC583CA97
:10088800F0A3C8C582C8CAC583CADFE9DEE780BE4F
:0109300000C6
:10021F00BB010689828A83E0225002E722BBFE02DD
:09022F00E32289828A83E4932210
:10023800EF8DF0A4A8F0CF8CF0A428CE8DF0A42EDA
:02024800FE2294
:10024A00E88FF0A4CC8BF0A42CFCE98EF0A42CFC53
:10025A008AF0EDA42CFCEA8EF0A4CDA8F08BF0A4D1
:10026A002DCC3825F0FDE98FF0A42CCD35F0FCEB30
:10027A008EF0A4FEA9F0EB8FF0A4CFC5F02ECD39F5
:0F028A00FEE43CFCEAA42DCE35F0FDE43CFC2262
:1002990075F008758200EF2FFFEE33FECD33CDCC1C
:1002A90033CCC58233C5829BED9AEC99E58298409F
:1002B9000CF582EE9BFEED9AFDEC99FC0FD5F0D67C
:1002C900E4CEFBE4CDFAE4CCF9A88222B800C1B9A6
:1002D9000059BA002DEC8BF084CFCECDFCE5F0CBE4
:1002E900F97818EF2FFFEE33FEED33FDEC33FCEB1D
:1002F90033FB10D703994004EB99FB0FD8E5E4F9D8
:10030900FA227818EF2FFFEE33FEED33FDEC33FCC4
:10031900C933C910D7059BE99A4007EC9BFCE99AB8
:10032900F90FD8E0E4C9FAE4CCFB2275F010EF2FFD
:10033900FFEE33FEED33FDCC33CCC833C810D707FD
:100349009BEC9AE899400AED9BFDEC9AFCE899F838
:0E0359000FD5F0DAE4CDFBE4CCFAE4C8F922CB
:10036700EB9FF5F0EA9E42F0E99D42F0E89C45F0EC
:010377002263
:10089800AC75AD76AE77AF787810EC4D4E4F7004EE
:1008A8007CA57DA5C3EC13FCED13FDEE13FEEF1341
:1008B800FF5010EC64CCFCED644CFDEE644EFEEF92
:1008C80064CEFFD8DF8C758D768E778F78EE547F67
:0D08D800FE228E758F7674A5F577F57822D7
:00000001FF
