:030000000208A44F
:0C08A400787FE4F6D8FD75813D0208EB7A
:100A9300013100012B00013C00012C00042D00005A
:100AA3000070012A000129010A323F065B4F666D7F
:040AB3007D077F6FCD
:080B0F0025E044A0FF120A39A1
:070B1700D2A10000C2A122DF
:0B0B1E00D2A0D2A10000C2A0C2A12200
:0B0B2900C2A0D2A10000D2A0C2A122F5
:100A3900E4F531E531FD3395E0FCC3ED9408EC6450
:100A49008094805019EFC4131313540124FF92A00A
:100A5900EF25E0FFD2A10000C2A1053180D5A2A0F7
:050A69009200C2A02272
:10093000E4F50FF50EF50DF50CD2A0F531AF31EF62
:100940003395E0FEC3EF9408EE648094805033AF9B
:100950000FAE0EAD0DAC0C7801120AC98F0F8E0EC2
:100960008D0D8C0CD2A1000030A011EF2401F50FE9
:10097000E43EF50EE43DF50DE43CF50CC2A1053175
:0609800080BBC2A0AF0F16
:01098600224E
:100A6E00AE07AA05120B1EEB120B0FAF02120A39BC
:100A7E00120B17AF06120A39120B17120B297F0A27
:050A8E007E00020ADCFD
:0409CD00AE05AB07C1
:1009D100120B1EEE120B0FAF03120A39120B171274
:1009E1000B1EEE25E044A1120B13120930E48F0B0C
:1009F100F50AF509F508120B297F0AFE120ADCAF88
:010A01000BE9
:010A020022D1
:100ADC00E4FDFCC3ED9FEC9E5015E4FBFA0BBB0050
:0F0AEC00010ABA04F8BBFBF50DBD00010C80E454
:010AFB0022D8
:100AFC00758901758CF7758A15D28C75A880D2A969
:030B0C00D28D2265
:10098700120AFCE4FDFF1209CDE48F30F52FF52E96
:10099700F52D120A0CE5296401700FAF30FBFD122B
:1009A7000A6E120A03E4F52980EBE529640170E574
:1009B700E52A640170DFAF30FB7D01120A6E120A6F
:0609C70003E4F52980CFD6
:090A03007F0A7E00120ADCAF300C
:100A0C00753D02E53D3395E0C364809480401DEF55
:100A1C0075F00A84743225F0F8E6FE7421253DF851
:0D0A2C00A606EF75F00A84FF153D80D72265
:03000B00020800E8
:10080000C0E0C0F0C083C082C0D075D000C000C0BE
:1008100001C002C003C004C005C006C007758CF04B
:10082000758A1543A00CE52C25E025E0F452A07450
:1008300021252CF8E6F580052CAF2CEF3395E0FE52
:10084000EF64034E7004F52C053CAF3CEF3395E0AC
:10085000FEEF640A4E7032E5302401F530E4352FA6
:10086000F52FE4352EF52EE4352DF52D753C00756C
:100870002901E4FF7E01FDFCAB30AA2FA92EA82D93
:10088000C3120AB84003752A01D007D006D005D09C
:1008900004D003D002D001D000D0D0D082D083D0F9
:0408A000F0D0E03282
:1008B000020987E493A3F8E493A34003F68001F2CE
:1008C00008DFF48029E493A3F85407240CC8C33349
:1008D000C4540F4420C8834004F456800146F6DF18
:1008E000E4800B0102040810204080900A93E47E0B
:1008F000019360BCA3FF543F30E509541FFEE4930D
:10090000A360010ECF54C025E060A840B8E493A3D3
:10091000FAE493A3F8E493A3C8C582C8CAC583CAFE
:10092000F0A3C8C582C8CAC583CADFE9DEE780BEB6
:010AB700003E
:100AB800EB9FF5F0EA9E42F0E99D42F0E89C45F094
:010AC800220B
:100AC900E8600FEFC333FFEE33FEED33FDEC33FC8B
:030AD900D8F1222F
:00000001FF
