:03000000020843B0
:0C084300787FE4F6D8FD75810702088A72
:100B340054696D653A2000446174653A2000205080
:100B44000020410020200054656D7072617475723C
:100B5400652069733A004E614E0043414C43554C45
:060B640041544F52200035
:100AF3004200610000420031000042005400004205
:100B030000560000420052000042004E0000420026
:100B13005E000042005000004100100041004C0004
:080B230041004B0041004D00B0
:10099600120003900031E0FEA3E0FFEE70F2EF14C8
:1009A6006013146019146022240370E4120C337F60
:1009B600E87E03801012041D7F887E138007120CC8
:1009C600027F327E00120E4C80C6E4900052F0A3E5
:1009D600F090005EF0A3F0900050F0A3F09000318C
:0B09E600F0A3F07F32FE120E4C80A543
:050EA200D2B6C2B62229
:0A0E8700EF4E6003D2B422C2B42281
:100AA200AD07AC06E490005AF0A3F090005AE0FEC5
:100AB200A3E0FFC39408EE940050357E007401A8B1
:100AC20007088005C333CE33CED8F9FFEE5CFEEFC4
:100AD2005DFF900065EEF0A3EFF0120E87120EA2FA
:100AE20090005BE004F070C390005AE004F080BB19
:010AF20022E1
:1007A000D2B57FBF7E00120AA2E490005AF0A3F0F7
:1007B000E4900035F0A3F0900058F0A3F0900035DD
:1007C000E0A2E713F0A3E013F030B406E04480F0B9
:1007D000800AE4900035F0A3E0547FF0120EA2905E
:1007E0000059E004F07006900058E004F0C3900057
:1007F00059E09408900058E0940040C1900035E022
:10080000FCA3E0FD90005BE025E0FF90005AE033A0
:10081000FE74002FF58274003EF583ECF0A3EDF03A
:1008200090005BE004F0700690005AE004F0C39082
:10083000005BE0940890005AE0940050030207B077
:03084000C2B5221C
:100DE900AB05D2B5EF3395E0FE120AA2AF03EF339C
:090DF90095E0FE120AA2C2B52227
:10041D0090005FE004F0700690005EE004F0C39081
:10042D00005FE0940290005EE09400502B120D935B
:10043D00E4FD7F8E120DE97DAB7F90120DE9758B7A
:10044D00FFD28E7BFF7A0B7934120B9D120EA77B98
:10045D00FF7A0B793B120B9D90004BE0FFA3E0FE62
:10046D00D3EF6480F8EE648098403AEF3395E0FE68
:10047D0074102FF58274003EF583E0FD3395E0FC9A
:10048D00ED645C4C701974112FF58274003EF58388
:10049D00E0B4720BC2AFC2ACE490004BF0A3F0908D
:1004AD00004BE004F0D2B51207A0C2B57D06E4FF03
:1004BD00120BD0900004A3E0FF900002A3E0FD908A
:1004CD000000A3E0FB1208CF900004A3E0FF5480CE
:1004DD00D3940074809480401AEF5420D394007408
:1004ED008094807BFF40067A0B7942800C7A0B79E1
:1004FD004580067BFF7A0B7948120B9D7D067F01A7
:10050D00120BD0900006A3E0FFA3A3E0FD90000C1A
:06051D00A3E0FB0209F15E
:100C3300900053E004F07006900052E004F0C3907B
:100C43000053E09402900052E09400500C120DCE39
:0C0C53007BFF7A0B794B120B6A020C8BB2
:10000300C290D293D292D29120944E7F20120E02AC
:100013002094467F37120D83900010E0701A9000F1
:1000230054E0FEA3E0FF7C007D0A12062AEF2407BA
:10003300FFE43E9000548018900056E0FEA3E0FFDA
:100043007C007D0A12062AEF2407FFE43E90005647
:10005300F0A3EFF07E007F072220954B7F20120E46
:10006300022095437F38120D83900010E0701A90A0
:100073000054E0FEA3E0FF7C007D0A12062AEF2471
:1000830008FFE43E9000548018900056E0FEA3E081
:10009300FF7C007D0A12062AEF2408FFE43E90004D
:1000A30056F0A3EFF080BA20964B7F20120E022069
:1000B30096437F39120D83900010E0701A9000541C
:1000C300E0FEA3E0FF7C007D0A12062AEF2409FF6D
:1000D300E43E9000548018900056E0FEA3E0FF7CBD
:1000E300007D0A12062AEF2409FFE43E900056F031
:1000F300A3EFF080BA20971B7F20120E02209713E4
:100103009000107401F07F2F120D83900060742F04
:10011300F080EAC291D293D292D29020944B7F2066
:10012300120E022094437F34120D83900010E0706E
:100133001A900054E0FEA3E0FF7C007D0A12062A19
:10014300EF2404FFE43E9000548018900056E0FE34
:10015300A3E0FF7C007D0A12062AEF2404FFE43E9D
:10016300900056F0A3EFF080BA20954B7F20120E3B
:10017300022095437F35120D83900010E0701A9092
:100183000054E0FEA3E0FF7C007D0A12062AEF2460
:1001930005FFE43E9000548018900056E0FEA3E073
:1001A300FF7C007D0A12062AEF2405FFE43E90003F
:1001B30056F0A3EFF080BA20964B7F20120E022058
:1001C30096437F36120D83900010E0701A9000540E
:1001D300E0FEA3E0FF7C007D0A12062AEF2406FF5F
:1001E300E43E9000548018900056E0FEA3E0FF7CAC
:1001F300007D0A12062AEF2406FFE43E900056F023
:10020300A3EFF080BA20971B7F20120E02209713D2
:100213009000107401F07F78120D83900060747861
:10022300F080EAC292D293D290D29120944B7F2055
:10023300120E022094437F31120D83900010E07060
:100243001A900054E0FEA3E0FF7C007D0A12062A08
:10025300EF2401FFE43E9000548018900056E0FE26
:10026300A3E0FF7C007D0A12062AEF2401FFE43E8F
:10027300900056F0A3EFF080BA20954B7F20120E2A
:10028300022095437F32120D83900010E0701A9084
:100293000054E0FEA3E0FF7C007D0A12062AEF244F
:1002A30002FFE43E9000548018900056E0FEA3E065
:1002B300FF7C007D0A12062AEF2402FFE43E900031
:1002C30056F0A3EFF080BA20964B7F20120E022047
:1002D30096437F33120D83900010E0701A90005400
:1002E300E0FEA3E0FF7C007D0A12062AEF2403FF51
:1002F300E43E9000548018900056E0FEA3E0FF7C9B
:10030300007D0A12062AEF2403FFE43E900056F014
:10031300A3EFF080BA20971B7F20120E02209713C1
:100323009000107401F07F2D120D83900060742DE6
:10033300F080EAC293D290D292D2912094627F202D
:10034300120E0220945A7F20120D837F4E120D83CA
:100353007F65120D837F78120D837F74120D839056
:100363000010E07014900054E0FEA3E0FF7C007DD9
:100373000A12062A9000548012900056E0FEA3E071
:10038300FF7C007D0A12062A900056EEF0A3EFF0E0
:10039300900032E004F070AB900031E004F080A3F1
:1003A3002095407F20120E022095387F30120D8356
:1003B300900010E07014900054E0FEA3E0FF7C0076
:1003C3007D0A12062A9000548012900056E0FEA384
:1003D300E0FF7C007D0A12062A900056EEF0A3EFA0
:1003E300F080C52096127F20120E0220960A7F3DD0
:1003F300120D831206F380F320971B7F20120E0247
:100403002097139000107401F07F2B120D8390003E
:0A04130060742BF080EAE4FEFF2283
:100E0200E4FEEEC39F5011E4FDFC0DBD00010CEDAC
:080E120064464C70F50E80EA05
:010E1A0022B5
:1006F300900060E0B42B17900056E0FEA3E0FF905B
:100703000055E02FFF900054E03EFE1205239000B9
:1007130060E0642D7039900056E0FEA3E0FF900086
:1007230054E0FCA3E0FDD39FEC9E4006ED9FFFEC5D
:1007330080187F2D120D83900054E0FEA3E0FFC3C9
:10074300900057E09FFF900056E09EFE1205239015
:100753000060E0B42F29900056E0FCA3E0FD4C605C
:1007630010900054E0FEA3E0FF12063C1205238024
:100773000E7F01120E577BFF7A0B795A120C5F9092
:100783000060E0B47816900056E0FCA3E0FD900012
:0D07930054E0FEA3E0FF12062A1205232207
:10052300900074EEF0A3EFF0D3940FEE9427402ADB
:10053300900074E0FEA3E0FF7C277D10120D759000
:100543000074E0FEA3E0FF7C277D1012063C9000C0
:1005530074ECF0FEA3EDF0FF8018900074E0FEA3AE
:10056300E0FFD394E7EE9403402AEF940FEE942731
:1005730050227C037DE8120D75900074E0FEA3E029
:10058300FF7C037DE812063C900074ECF0FEA3EDC3
:10059300F0FF8018900074E0FEA3E0FFD39463EEB5
:1005A30094004028EF94E7EE940350207D64120DED
:1005B30073900074E0FEA3E0FF7C007D6412063CB0
:1005C300900074ECF0FEA3EDF0FF8018900074E04F
:1005D300FEA3E0FFD39409EE94004026EF9463EE6C
:1005E3009400501E7D0A120D73900074E0FEA3E088
:1005F300FF7C007D0A12063C900067ECF0A3EDF04F
:0E0603008005900074A3E02430FF120D8322C6
:100D2B007F147E00120CE57F01120E577F38120ED6
:100D3B00577F0E120E577F06120E577F01120E575A
:050D4B007F80020E573D
:100E57008F80C2A6C2A5D2A77F14120D50C2A722A7
:100D73007C0012063C900067EEF0A3EFF02430FFF6
:100D83008F80D2A6C2A5D2A77F28120D50C2A72258
:100D5000E4FDFCEFFBC3ED9BEC94005015E4FBFAC3
:100D60000BBB00010ABA04F8BBFBF50DBD00010C7A
:020D700080E120
:010D7200225E
:100C0200900051E004F07006900050E004F0C390B0
:100C12000051E09402900050E094005011120D2B0C
:100C22007BFF7A0B795E120B6A7FC0120E570200AD
:010C320003BE
:100C5F00900074EBF0A3EAF0A3E9F0900074E0FBCE
:100C6F00A3E0FAA3E0F9120611FF600F120D8390B3
:0C0C7F000075E475F0011206C780E02249
:070E9B002E00432000460079
:080B2B0041007000410071005F
:100DB300D2B77F087E00120E4CC2B77F417E00126D
:0B0DC3000E4CD2B77F147E00020E4CD5
:070E4500120D057F0A7E007B
:0B0E4C00EF1FAC0670011E4C70F62278
:100CB500E4FB7D08EDD39400748094804017C2B79F
:100CC500EB13FBD2B730B7034480FB7F047E0012E1
:070CD5000E4C1D80DFAF0390
:010CDC0022F5
:020D0500AD0738
:100D07007B08EBD39400748094804017C2B7ED132F
:100D170092B77F057E00120E4CD2B7EDA2E713FD06
:030D27001B80DF4F
:010D2A0022A6
:100A4B00120DB37FCC120D057F44120E45120DB360
:100A5B007FCC120D057FBE120E45120CB5900071A6
:100A6B00EFF0120CB5900070EFF0FEA3E07C0024C9
:100A7B0000FFEC3EC4F854F0C8EFC4540F48FF908D
:100A8B000073F07E007D0912062A7D05120691EF98
:070A9B00242090006BF02203
:10093600AD07ED75F06484243090006FF0FBED7523
:10094600F06484E5F075F00A84243090006EF0EDD2
:1009560075F00A84E5F0243090006DF0EDFF90000C
:100966006CF0C39F2430900072F0AF03120E91908A
:10097600006EE0FF120E9190006DE0FF120E917B6B
:10098600FF7A0E799B120B6A900072E0FF020E91BD
:100C8B007FC0120E67120A4B900073E0FF120936F9
:100C9B007BFF7A0E799D120B6A90006BE0FF1209B5
:0A0CAB00367BFF7A0E79A0020B6A77
:100DCE007F147E00120CE57F38120E677F0E120E16
:0B0DDE00677F06120E677F01020E67A0
:100B6A00900074EBF0A3EAF0A3E9F0900074E0FBC4
:100B7A00A3E0FAA3E0F91206116017900074A3E447
:100B8A0075F0011206DDA9F0FA120611FF120E9194
:030B9A0080D922DD
:100E67008F80C2A6120CDDC2A77F057E00020CE5AB
:0A0E91008F80D2A6120CDDC2A7224A
:080CDD00C2A5D2A77F017E0031
:100CE500E4FDFCC3ED9FEC9E5015E4FBFA0BBB0045
:0F0CF500010AEB64704A70F50DBD00010C80E43C
:010D040022CC
:100D93007F887E13120E397F38120E777F0E120E64
:100DA300777F06120E777F01120E777F80020E7710
:100E77008F80C2A6120E31C2A77F017E00020E39F3
:060E1B00E0540F2430FF3B
:100E21008F80D2A6120E31C2A77F017E00020E3939
:050EA7007FC0020E7780
:100BD000EFFB3395E0FAC3EB9402EA648094805013
:100BE00020EFC4333354C04480FFEDFB3395E0FA6B
:100BF000C3EB9410EA648094805003ED2FFF120E33
:010C0000777C
:010C010022D0
:100B9D00900074EBF0A3EAF0A3E9F0900074E0FB91
:100BAD00A3E0FAA3E0F91206116017900074A3E414
:100BBD0075F0011206DDA9F0FA120611FF120E21D1
:030BCD0080D922AA
:0D08CF00900075EDF0A3EBF0900074EFF0D9
:1008DC007E0120E7027E03900074E0FF7804A2E71B
:1008EC0013D8FB5E2430FF120E21900074120E1BE5
:1008FC007F3A120E21900075E0FF7804A2E713D81E
:10090C00FB120E1C900075120E1B7F3A120E2190DA
:10091C000076E0FF7804A2E713D8FB120E1C9000BF
:0A092C0076E0540F2430FF020E2184
:1009F100900074EFF0A3EDF0A3EBF0900074E0FF32
:100A01007804A2E713D8FB120E1C900074120E1B7F
:100A11007F2F120E21900075E0FF7804A2E713D812
:100A2100FB120E1C900075120E1B7F2F120E2190CF
:100A31000076E0FF7804A2E713D8FB120E1C9000A9
:0A0A410076E0540F2430FF020E216E
:080E3100C2A5D2A77F017E00DB
:0C0E3900EF4E6007EF1F70F81E80F522DE
:10084F00020996E493A3F8E493A34003F68001F220
:10085F0008DFF48029E493A3F85407240CC8C333AA
:10086F00C4540F4420C8834004F456800146F6DF79
:10087F00E4800B0102040810204080900AF3E47E0C
:10088F00019360BCA3FF543F30E509541FFEE4936E
:10089F00A360010ECF54C025E060A840B8E493A335
:1008AF00FAE493A3F8E493A3C8C582C8CAC583CA60
:1008BF00F0A3C8C582C8CAC583CADFE9DEE780BE18
:010B330000C1
:10061100BB010689828A83E0225002E722BBFE02E7
:09062100E32289828A83E493221A
:10062A00EF8DF0A4A8F0CF8CF0A428CE8DF0A42EE4
:02063A00FE229E
:10063C00BC000BBE0029EF8DF084FFADF022E4CCA2
:10064C00F875F008EF2FFFEE33FEEC33FCEE9DEC6B
:10065C00984005FCEE9DFE0FD5F0E9E4CEFD22EDB1
:10066C00F8F5F0EE8420D21CFEADF075F008EF2FFB
:10067C00FFED33FD4007985006D5F0F222C398FDEC
:05068C000FD5F0EA2289
:10069100C2D5EC30E709B2D5E4C39DFDE49CFCEE84
:1006A10030E715B2D5E4C39FFFE49EFE12063CC3BA
:1006B100E49DFDE49CFC800312063C30D507C3E4B5
:0606C1009FFFE49EFE22F3
:1006C700C5F0F8A3E028F0C5F0F8E58215827002BE
:0606D7001583E038F0225B
:1006DD00A3F8E0C5F025F0F0E582158270021583D0
:0606ED00E0C838F0E8222D
:00000001FF
