:0F14E20043414C43554C41544F5200203D200094
:100A6400E490006CF0A3F0A3F0A3F0A3F0A3F012C1
:100A740010C87BFF7A1479E2120EAE7FC0121443C1
:100A84001206F2900076EFF0120DE0900072EEF094
:100A9400A3EFF01206F2900078EFF01206F2900045
:100AA40077EFF0120DE0900074EEF0A3EFF07BFF0F
:100AB4007A1479ED120EAE900078E024D6603824D2
:100AC400FD601D24FE604A24047064900072E0FE00
:100AD400A3E0FF900075E02FFD900074E03E8014C9
:100AE400900074E0FEA3E0FFC3900073E09FFD90CC
:100AF4000072E09EFC8032900074E0FCA3E0FD9064
:100B04000072E0FEA3E0FF12060FAC06AD07EC8016
:100B140018900074E0FCA3E0FD900072E0FEA3E0F6
:100B2400FF120676AC06AD07EC12050F120B37E484
:020B3400FEFFC2
:010B3600229C
:1010C8007F987E3A12136E7F301214437F947E11FC
:1010D80012136E7F301214437F2C7E0112136E7F21
:1010E800301214437F587E0212136E7F3812144355
:1010F8007F0F1214437F011214437F061214437F9B
:04110800800214430A
:101443008F80C2A6C2A5D2A77F327E0012136EC2BE
:08145300A77F327E0002136E38
:10145B008F80D2A6C2A5D2A77F327E0012136EC296
:08146B00A77F327E0002136E20
:04136A007F107E274B
:10136E00E4FDFCC3ED9FEC9E5015E4FBFA0BBB00B5
:0F137E00010AEB64054A70F50DBD00010C80E417
:01138D00223D
:1006F2007F73EF64307046EF64317041EF643270A3
:100702003CEF64337037EF64347032EF6435702D30
:10071200EF64367028EF64377023EF6438701EEF91
:1007220064397019EF642B7014EFB42D10B43D0DC1
:10073200B4240AB42A07642F700302086DC290D24F
:1007420091D292D29320940E20900B7F2F12145BA1
:1007520012136A7F2F222095062090030208292077
:10076200960E20900B7F2D12145B12136A7F2D229E
:1007720020970E20900B7F2B12145B12136A7F2B93
:1007820022D290C291D292D29320940E20910B7FCA
:100792003D12145B12136A7F3D2220950E20910BAD
:1007A2007F3912145B12136A7F392220960E209130
:1007B2000B7F3612145B12136A7F362220970E20AB
:1007C200910B7F3312145B12136A7F3322D290D2C1
:1007D20091C292D29320940E20920B7F3012145B1E
:1007E20012136A7F302220950E20920B7F3812144A
:1007F2005B12136A7F382220960E20920B7F3512ED
:10080200145B12136A7F352220970E20920B7F32DF
:1008120012145B12136A7F3222D290D291D292C208
:100822009320940E20930B7F2A12145B12136A7F7B
:100832002A2220950E20930B7F3712145B12136A23
:100842007F372220960E20930B7F3412145B1213F3
:100852006A7F34223097030206F43093030206F4CF
:0D0862007F3112145B12136A7F31227F0078
:01086F002266
:100DE000EF24D0B40A00505B900DF675F003A4C553
:100DF0008325F0C58373020E14020E16020E1B0229
:100E00000E20020E25020E2A020E2F020E34020EB2
:100E100039020E3E802D7E007F01227E007F02225D
:100E20007E007F03227E007F04227E007F05227EDB
:100E3000007F06227E007F07227E007F08227E0040
:070E40007F0922E4FEFF22FE
:060B37009000791206E6B1
:100B3D00E490007DF0A3F0A3F0FFFE7D207C4190BA
:100B4D000079E0F8A3E0F9A3E0FAA3E0FB120404B6
:100B5D00120548900080EEF0A3EFF0900079E0FCD4
:100B6D00A3E0FDA3E0FEA3E0FF120548900082EE96
:100B7D00F0A3EFF0C3EE64809480501C900082E0EF
:100B8D00FEA3E0FF7CFF7DFF12060F900082EEF0CA
:100B9D00A3EFF07F2D12145B900082E0FEA3E0FF27
:100BAD007C007D0A12067690007EEFF06007E0244F
:100BBD0030FF12145B900082A3E0FF90007EE07581
:100BCD00F00AA4FEC3EF9E90007DF02430FF1214B6
:100BDD005B7F2E12145B900080E0FEA3E0FF7C0093
:100BED007D0A120676ED2430FF90007FF012145B23
:070BFD007F807E8402136E6D
:0B0EAE0090008DEBF0A3EAF0A3E9F048
:100EB900E4A3F0A3F090008DE0FBA3E0FAA3E0F92E
:100EC900A3E0FEA3E0F5828E831205E2FF3395E0ED
:100ED9004F60327F0A7E0012136E90008DE0FBA3F3
:100EE900E0FAA3E0F9A3E0FEA3E0F5828E83120500
:100EF900E2FF12145B900091E004F070B89000904A
:050F0900E004F080B0DF
:010F0E0022C0
:03000000020D549A
:0C0D5400787FE4F6D8FD758107020D9B46
:10114D0054696D653A2000446174653A2000205061
:10115D000020410020200054656D7072617475721D
:10116D00653A004E614E0053494D2043414C435565
:07117D004C41544F522000C9
:10110C0042006200004200310000420055000042E3
:10111C0000570000420053000042004F0000420004
:10112C005F000042005100004100100041004D00E2
:08113C0041004C0041004E008F
:100FC900120003900031E0FEA3E0FFEE70F2EF148F
:100FD900601114601514601E240370E412124D7F11
:100FE9000A800C1208707F05800512121C7F057E8D
:100FF900001214B780CAE4900053F0A3F090005F88
:10100900F0A3F0900051F0A3F0900031F0A3F07F2D
:0710190032FE1214B780A99A
:05150C00D2B6C2B622B8
:0A14F100EF4E6003D2B422C2B42211
:10107700AD07AC06E490005BF0A3F090005BE0FEE8
:10108700A3E0FFC39408EE940050357E007401A8D6
:1010970007088005C333CE33CED8F9FFEE5CFEEFE9
:1010A7005DFF900066EEF0A3EFF01214F112150C3D
:1010B70090005CE004F070C390005BE004F080BB3C
:0110C7002206
:100CB100D2B57FBF7E00121077E490005BF0A3F005
:100CC100E4900036F0A3F0900059F0A3F0900036C4
:100CD100E0A2E713F0A3E013F030B406E04480F0A3
:100CE100800AE4900036F0A3E0547FF012150C90D6
:100CF100005AE004F07006900059E004F0C390003F
:100D01005AE09408900059E0940040C1900036E008
:100D1100FCA3E0FD90005CE025E0FF90005BE03388
:100D2100FE74002FF58274003EF583ECF0A3EDF024
:100D310090005CE004F0700690005BE004F0C3906A
:100D4100005CE0940890005BE094005003020CC149
:030D5100C2B52206
:10142A00AB05D2B5EF3395E0FE121077AF03EF3379
:09143A0095E0FE121077C2B52204
:10087000900060E004F0700690005FE004F0C39028
:100880000060E0940290005FE09400502B1213D4BB
:10089000E4FD7F8E12142A7DAB7F9012142A758B93
:1008A000FFD28E7BFF7A11794D1211B71215117B91
:1008B000FF7A1179541211B790004CE0FFA3E0FECB
:1008C000D3EF6480F8EE648098403AEF3395E0FE11
:1008D00074102FF58274003EF583E0FD3395E0FC43
:1008E000ED645C4C701974112FF58274003EF58331
:1008F000E0B4720BC2AFC2ACE490004CF0A3F09035
:10090000004CE004F0D2B5120CB1C2B57D06E4FF94
:100910001211EA900004A3E0FF900002A3E0FD9012
:100920000000A3E0FB120E47900004A3E0FF5480F8
:10093000D3940074809480401AEF5420D3940074B0
:100940008094807BFF40067A11795B800C7A117964
:100950005E80067BFF7A1179611211B77D067F01F7
:100960001211EA900006A3E0FFA3A3E0FD90000CA3
:06097000A3E0FB020F6F83
:10124D00900054E004F07006900053E004F0C39059
:10125D000054E09402900053E09400500C12140FCF
:0C126D007BFF7A1179641211840212A533
:10000300C290D293D292D29120944E7F201213B1F8
:100013002094467F3712139E900010E0701A9000D0
:1000230055E0FEA3E0FF7C007D0A12060FEF2407D4
:10003300FFE43E9000558018900057E0FEA3E0FFD8
:100043007C007D0A12060FEF2407FFE43E90005761
:10005300F0A3EFF07E007F072220954B7F20121341
:10006300B12095437F3812139E900010E0701A90D0
:100073000055E0FEA3E0FF7C007D0A12060FEF248B
:1000830008FFE43E9000558018900057E0FEA3E07F
:10009300FF7C007D0A12060FEF2408FFE43E900068
:1000A30057F0A3EFF080BA20964B7F201213B120B4
:1000B30096437F3912139E900010E0701A900055FA
:1000C300E0FEA3E0FF7C007D0A12060FEF2409FF88
:1000D300E43E9000558018900057E0FEA3E0FF7CBB
:1000E300007D0A12060FEF2409FFE43E900057F04B
:1000F300A3EFF080BA20971B7F201213B120971330
:100103009000107401F07F2F12139E900061742FE2
:10011300F080EAC291D293D292D29020944B7F2066
:100123001213B12094437F3412139E900010E07099
:100133001A900055E0FEA3E0FF7C007D0A12060F33
:10014300EF2404FFE43E9000558018900057E0FE32
:10015300A3E0FF7C007D0A12060FEF2404FFE43EB8
:10016300900057F0A3EFF080BA20954B7F20121335
:10017300B12095437F3512139E900010E0701A90C2
:100183000055E0FEA3E0FF7C007D0A12060FEF247A
:1001930005FFE43E9000558018900057E0FEA3E071
:1001A300FF7C007D0A12060FEF2405FFE43E90005A
:1001B30057F0A3EFF080BA20964B7F201213B120A3
:1001C30096437F3612139E900010E0701A900055EC
:1001D300E0FEA3E0FF7C007D0A12060FEF2406FF7A
:1001E300E43E9000558018900057E0FEA3E0FF7CAA
:1001F300007D0A12060FEF2406FFE43E900057F03D
:10020300A3EFF080BA20971B7F201213B12097131E
:100213009000107401F07F7812139E90006174783F
:10022300F080EAC292D293D290D29120944B7F2055
:100233001213B12094437F3112139E900010E0708B
:100243001A900055E0FEA3E0FF7C007D0A12060F22
:10025300EF2401FFE43E9000558018900057E0FE24
:10026300A3E0FF7C007D0A12060FEF2401FFE43EAA
:10027300900057F0A3EFF080BA20954B7F20121324
:10028300B12095437F3212139E900010E0701A90B4
:100293000055E0FEA3E0FF7C007D0A12060FEF2469
:1002A30002FFE43E9000558018900057E0FEA3E063
:1002B300FF7C007D0A12060FEF2402FFE43E90004C
:1002C30057F0A3EFF080BA20964B7F201213B12092
:1002D30096437F3312139E900010E0701A900055DE
:1002E300E0FEA3E0FF7C007D0A12060FEF2403FF6C
:1002F300E43E9000558018900057E0FEA3E0FF7C99
:10030300007D0A12060FEF2403FFE43E900057F02E
:10031300A3EFF080BA20971B7F201213B12097130D
:100323009000107401F07F2D12139E900061742DC4
:10033300F080EAC293D290D292D2912094497F2046
:100343001213B1209441900010E07014900055E016
:10035300FEA3E0FF7C007D0A12060F900055801279
:10036300900057E0FEA3E0FF7C007D0A12060F9089
:100373000057EEF0A3EFF0900032E004F070C49069
:100383000031E004F080BC2095407F201213B1209F
:1003930095387F3012139E900010E0701490005532
:1003A300E0FEA3E0FF7C007D0A12060F900055805B
:1003B30012900057E0FEA3E0FF7C007D0A12060FB7
:1003C300900057EEF0A3EFF080C52096127F201225
:1003D30013B120960A7F3D12139E120C0480F32062
:1003E300971B7F201213B12097139000107401F014
:1003F3007F2B12139E900061742BF080EAE4FEFFC2
:0104030022D6
:100C0400900061E0B42B17900057E0FEA3E0FF9042
:100C14000056E02FFF900055E03EFE12097690004A
:100C240061E0642D7039900057E0FEA3E0FF90006E
:100C340055E0FCA3E0FDD39FEC9E4006ED9FFFEC46
:100C440080187F2D12139E900055E0FEA3E0FFC391
:100C5400900058E09FFF900057E09EFE12097690A6
:100C64000061E0B42F29900057E0FCA3E0FD4C6044
:100C740010900055E0FEA3E0FF12062112097680D1
:100C84000E7F0112149D7BFF7A11797012127990F4
:100C94000061E0B47816900057E0FCA3E0FD9000FA
:0D0CA40055E0FEA3E0FF12060F12097622B4
:10097600900092EEF0A3EFF0D3940FEE9427402A66
:10098600900092E0FEA3E0FF7C277D10121390906A
:100996000092E0FEA3E0FF7C277D10120621900066
:1009A60092ECF0FEA3EDF0FF8018900092E0FEA31B
:1009B600E0FFD394E7EE9403402AEF940FEE9427DA
:1009C60050227C037DE8121390900092E0FEA3E093
:1009D600FF7C037DE8120621900092ECF0FEA3ED69
:1009E600F0FF8018900092E0FEA3E0FFD39463EE40
:1009F60094004028EF94E7EE940350207D64121390
:100A06008E900092E0FEA3E0FF7C007D641206213A
:100A1600900092ECF0FEA3EDF0FF8018900092E0BB
:100A2600FEA3E0FFD39409EE94004026EF9463EE14
:100A36009400501E7D0A12138E900092E0FEA3E0F1
:100A4600FF7C007D0A120621900068ECF0A3EDF011
:0E0A56008005900092A3E02430FF12139E2230
:101345007F147E001212FF7F0112149D7F38121444
:101355009D7F0E12149D7F0612149D7F0112149D10
:051365007F8002149DD1
:10149D00900035EFF0C2A6C2A5D2A77F141213B1EA
:0314AD00C2A722B1
:10138E007C00120621900068EEF0A3EFF02430FFEF
:10139E00900035EFF0D2A6C2A5D2A77F281213B1C6
:0313AE00C2A722B1
:1013B100E4FDFCEFFBC3ED9BEC94005015E4FBFA5C
:1013C1000BBB00010ABA04F8BBFBF50DBD00010C13
:0213D10080E1B9
:0113D30022F7
:10121C00900052E004F07006900051E004F0C3908E
:10122C000052E09402900051E094005011121345CA
:10123C007BFF7A1179741211847FC012149D020005
:01124C00039E
:10127900900092EBF0A3EAF0A3E9F0900092E0FB72
:10128900A3E0FAA3E0F91205C9FF600F12139E90BB
:0C1299000093E475F0011206AC80E02226
:071505002E00432000460008
:081144004100890041008A000E
:1013F400D2B77F087E001214B7C2B77F417E0012B5
:0B14040014B7D2B77F147E000214B7AB
:0714B00012131F7F0A7E00EA
:0B14B700EF1FAC0670011E4C70F62207
:1012CF00E4FB7D08EDD39400748094804017C2B77F
:1012DF00EB13FBD2B730B7034480FB7F047E0012C1
:0712EF0014B71D80DFAF03FF
:0112F60022D5
:02131F00AD0718
:101321007B08EBD39400748094804017C2B7ED130F
:1013310092B77F057E001214B7D2B7EDA2E713FD75
:031341001B80DF2F
:011344002286
:101020001213F47FCC12131F7F441214B01213F466
:101030007FCC12131F7FBE1214B01212CF90008A01
:10104000EFF01212CF900089EFF0FEA3E07C0024B5
:1010500000FFEC3EC4F854F0C8EFC4540F48FF90B2
:10106000008CF07E007D0912060F7D05120676EFDA
:071070002420900084F0220F
:100F0F00AD07ED75F064842430900088F0FBED752B
:100F1F00F06484E5F075F00A842430900087F0EDDA
:100F2F0075F00A84E5F02430900086F0EDFF900014
:100F3F0085F0C39F243090008BF0AF031214FB9009
:100F4F000087E0FF1214FB900086E0FF1214FB7B7A
:100F5F00FF7A15790512118490008BE0FF0214FBC4
:1012A5007FC01214C212102090008CE0FF120F0FA5
:1012B5007BFF7A157907121184900084E0FF120FE5
:0A12C5000F7BFF7A15790A021184ED
:10140F007F147E001212FF7F381214C27F0E121447
:0B141F00C27F061214C27F010214C23B
:10118400900092EBF0A3EAF0A3E9F0900092E0FB68
:10119400A3E0FAA3E0F91205C96017900092A3E452
:1011A40075F0011206C2A9F0FA1205C9FF1214FB68
:0311B40080D922BD
:1014C2008F80C2A61212F7C2A77F057E000212FF0A
:0A14FB008F80D2A61212F7C2A722BA
:0812F700C2A5D2A77F017E0011
:1012FF00E4FDFCC3ED9FEC9E5015E4FBFA0BBB0025
:0F130F00010AEB64704A70F50DBD00010C80E41B
:01131E0022AC
:1013D4007F887E131214917F381214D27F0E121458
:1013E400D27F061214D27F011214D27F800214D24B
:1014D2008F80C2A6121489C2A77F017E00021491D6
:06147300E0540F2430FFDD
:101479008F80D2A6121489C2A77F017E000214911F
:051511007FC00214D2AE
:1011EA00EFFB3395E0FAC3EB9402EA6480948050F3
:1011FA0020EFC4333354C04480FFEDFB3395E0FA4B
:10120A00C3EB9410EA648094805003ED2FFF12140C
:01121A00D201
:01121B0022B0
:1011B700900092EBF0A3EAF0A3E9F0900092E0FB35
:1011C700A3E0FAA3E0F91205C96017900092A3E41F
:1011D70075F0011206C2A9F0FA1205C9FF121479B7
:0311E70080D9228A
:0D0E4700900093EDF0A3EBF0900092EFF01F
:100E54007E0120E7027E03900092E0FF7804A2E77F
:100E640013D8FB5E2430FF1214799000921214738D
:100E74007F3A121479900093E0FF7804A2E713D824
:100E8400FB1214749000931214737F3A1214799025
:100E94000094E0FF7804A2E713D8FB1214749000C6
:0A0EA40094E0540F2430FF0214798B
:100F6F00900092EFF0A3EDF0A3EBF0900092E0FF72
:100F7F007804A2E713D8FB12147490009212147322
:100F8F007F2F121479900093E0FF7804A2E713D813
:100F9F00FB1214749000931214737F2F1214799014
:100FAF000094E0FF7804A2E713D8FB1214749000AA
:0A0FBF0094E0540F2430FF0214796F
:08148900C2A5D2A77F017E007D
:0C149100EF4E6007EF1F70F81E80F52280
:10040400EC4D6011E8497017ED33EC3304600DE4F2
:10041400FCFFFEFD22E933E8330470F80205B41250
:10042400057F58046009E4CC248150062850090251
:1004340005BE2840030205BBC0E0EB4A7044B98006
:1004440006D0E0FB0205AAEF4E701CBD8008EBFF4E
:10045400EAFEE9FD80EBE98DF0A4FEE5F00204ED8F
:10046400E9CDF9EAFEEBFFEF89F0A4FCE5F0CE89D3
:10047400F0A42EFFE435F0CD89F0A42DFEE435F090
:100484008067EF4E7005BD80D780C3EF8BF0A4ACBE
:10049400F0EE8BF0A42CFCE435F0F8EF8AF0A42CF9
:1004A400E5F038FCE433CB8DF0A42CFCE5F03BF80C
:1004B400EE8AF0A42CFCE5F038F8E433CF89F0A4FC
:1004C4002CFCE5F038CF3400CE89F0A42FFFE5F002
:1004D4003EFEE433C98DF0A42EFEE5F039CD8AF05A
:1004E400A42FFFE5F03EFEE43DFD33D0E0FB5007D2
:1004F4000BBB000F0205BEEC2CFCEF33FFEE33FE0A
:06050400ED33FD02059637
:10050A0075F020800E75F010800575F0087D007E6C
:10051A00007F003392D530D5031206D8EC33401051
:10052A00EF33FFEE33FEED33FDEC33FCD5F0ED2275
:0E053A00E5F0247EA2D513CC92E7CDCEFF22B1
:10054800EDD2E7CD33EC3392D524814006E4FFFEAB
:10055800FDFC22FCE4CFCECDCC24E0501174FF800A
:10056800EDC3CC13CCCD13CDCE13CECF13CF0470A7
:07057800F030D5DE0206D8C9
:10057F00E9D2E7C933E833F892D5EDD2E7CD33ECC2
:07058F0033FC5002B2D5223B
:10059600EC30E7100FBF000C0EBE00080DBD0004C6
:1005A6000BEB6014A2D5EB13FCED92E7FD2274FF72
:1005B600FCFDFEFF22E480F8A2D574FF13FC7D80CB
:0305C600E480EFDF
:100D6000020FC9E493A3F8E493A34003F68001F2D1
:100D700008DFF48029E493A3F85407240CC8C33394
:100D8000C4540F4420C8834004F456800146F6DF63
:100D9000E4800B010204081020408090110CE47ED6
:100DA000019360BCA3FF543F30E509541FFEE49358
:100DB000A360010ECF54C025E060A840B8E493A31F
:100DC000FAE493A3F8E493A3C8C582C8CAC583CA4A
:100DD000F0A3C8C582C8CAC583CADFE9DEE780BE02
:01114C0000A2
:1005C900BB010689828A83E0225002E722BBFE0230
:0905D900E32289828A83E4932263
:1005E200BB010CE58229F582E5833AF583E02250CE
:1005F20006E92582F8E622BBFE06E92582F8E22218
:0D060200E58229F582E5833AF583E4932231
:10060F00EF8DF0A4A8F0CF8CF0A428CE8DF0A42EFF
:02061F00FE22B9
:10062100BC000BBE0029EF8DF084FFADF022E4CCBD
:10063100F875F008EF2FFFEE33FEEC33FCEE9DEC86
:10064100984005FCEE9DFE0FD5F0E9E4CEFD22EDCC
:10065100F8F5F0EE8420D21CFEADF075F008EF2F16
:10066100FFED33FD4007985006D5F0F222C398FD07
:050671000FD5F0EA22A4
:10067600C2D5EC30E709B2D5E4C39DFDE49CFCEE9F
:1006860030E715B2D5E4C39FFFE49EFE120621C3F0
:10069600E49DFDE49CFC800312062130D507C3E4EB
:0606A6009FFFE49EFE220E
:1006AC00C5F0F8A3E028F0C5F0F8E58215827002D9
:0606BC001583E038F02276
:1006C200A3F8E0C5F025F0F0E582158270021583EB
:0606D200E0C838F0E82248
:0E06D800C3E49FFFE49EFEE49DFDE49CFC2233
:0C06E600ECF0A3EDF0A3EEF0A3EFF02287
:00000001FF
