:030000000200E615
:0C00E600787FE4F6D8FD75810A02000363
:10003C0020415A4D414E2042414B48544941522097
:10004C00007369676E616C204465746563746564E4
:08005C000020202020202000DC
:100003001200897BFF7A00793C12006420B218C287
:10001300A07FC01200CA7BFF7A00794D12006412E0
:1000230000BB1200BB80E5D2A07FC01200CA7BFFD9
:090033007A00795D12006480D3AB
:100089007F381200CA7F0E1200CA7F061200CA7F8B
:09009900011200CA7F800200CAB6
:0E00CA008F80C2A6C2A5D2A71200BBC2A72279
:0E00D8008F80D2A6C2A5D2A71200BBC2A7225B
:100064008B088A09890AAB08AA09A90A1200A260A6
:1000740013050AE50A7002050914F91200A2FF1219
:0500840000D880E2221B
:0E00BB00E4FFFE0FBF00010EBE4EF8BF20F5A1
:0100C9002214
:1000A200BB010689828A83E0225002E722BBFE025C
:0900B200E32289828A83E493228F
:00000001FF
