:03000000020800F3
:0C080000787FE4F6D8FD758112020847ED
:1008EF0002090000020E000002110000020B0000BE
:0908FF00011000010800010D00C8
:03000B0002088C5C
:10088C00C0E0C0D0050AE50A70020509050FE50FA6
:10089C007002050E0512E51270020511C3E50A94EB
:1008AC006FE509648094804008B2A0750900750A50
:1008BC0000C3E50F9462E50E648094844008B2A1F5
:1008CC00750E00750F00C3E51294C2E51164809497
:1008DC00AB400BB2A2751100751200750801D0D097
:0308EC00D0E03227
:0D090900758902758CAD75A882D28C80FEB8
:10080C00020909E493A3F8E493A34003F68001F2F0
:10081C0008DFF48029E493A3F85407240CC8C333ED
:10082C00C4540F4420C8834004F456800146F6DFBC
:10083C00E4800B01020408102040809008EFE47E55
:10084C00019360BCA3FF543F30E509541FFEE493B1
:10085C00A360010ECF54C025E060A840B8E493A378
:10086C00FAE493A3F8E493A3C8C582C8CAC583CAA3
:10087C00F0A3C8C582C8CAC583CADFE9DEE780BE5B
:0109080000EE
:00000001FF
