:0300000002069B5A
:0C069B00787FE4F6D8FD75811F0206A7E9
:0F068C0043414C43554C41544F5200203D2000F8
:1004B200E4F508F509F50AF50BF50CF50D1205F44E
:1004C2007BFF7A06798C1205AE7FC012065C12029F
:1004D200A08F121205478E0E8F0F1202A08F1312D9
:1004E20005478E108F117BFF7A0679971205AEE5CC
:1004F2001424D6602424FD601324FE602E2404708C
:1005020040E511250FFDE510350E800AC3E50F9574
:1005120011FDE50E9510FC8022AC10AD11AE0EAFB0
:100522000F1201F5AC06AD07EC8010AC10AD11AEA8
:100532000EAF0F120207AC06AD07EC12010E120449
:040542001AE4FEFFBA
:010546002292
:1005F4007F987E3A12063C7F3012065C7F947E110F
:1006040012063C7F3012065C7F2C7E0112063C7F72
:100614003012065C7F587E0212063C7F3812065C5C
:100624007F0F12065C7F0112065C7F0612065C7F58
:040634008002065CDE
:10065C008F80C2A6C2A5D2A77F327E0012063CC2F2
:08066C00A77F327E0002063C6C
:100674008F80D2A6C2A5D2A77F327E0012063CC2CA
:08068400A77F327E0002063C54
:040638007F107E278A
:10063C00E4FDFCC3ED9FEC9E5015E4FBFA0BBB00F4
:0F064C00010AEB64054A70F50DBD00010C80E456
:01065B00227C
:1002A0007F73EF64307042EF6431703DEF64327001
:1002B00038EF64337033EF6434702EEF6435702997
:1002C000EF64367024EF6437701FEF6438701ABF24
:1002D0003917BF2B14BF2D11BF3D0EBF240BBF2AF2
:1002E00008EF642F7003020417C290D291D292D209
:1002F0009320940E20900B7F2F1206741206387FE5
:100300002F222095062090030203D320960E2090E2
:100310000B7F2D1206741206387F2D2220970E2097
:10032000900B7F2B1206741206387F2B22D290C2BC
:1003300091D292D29320940E20910B7F3D1206749D
:100340001206387F3D2220950E20910B7F39120630
:10035000741206387F392220960E20910B7F3612B8
:1003600006741206387F362220970E20910B7F33B9
:100370001206741206387F3322D290D291C292D2E2
:100380009320940E20920B7F301206741206387F51
:10039000302220950E20920B7F38120674120638F8
:1003A0007F382220960E20920B7F3512067412069B
:1003B000387F352220970E20920B7F32120674125E
:1003C00006387F3222D290D291D292C29320940EDC
:1003D00020930B7F2A1206741206387F2A2220955A
:1003E0000E20930B7F371206741206387F372220B7
:1003F000960E20930B7F341206741206387F342237
:100400003097030202A23093030202A27F31120648
:09041000741206387F31227F00CE
:0104190022C0
:10054700EF24D0B40A00505B90055D75F003A4C595
:100557008325F0C5837302057B02057D02058202B0
:10056700058702058C02059102059602059B020587
:10057700A00205A5802D7E007F01227E007F02223A
:100587007E007F03227E007F04227E007F05227E7D
:10059700007F06227E007F07227E007F08227E00E2
:0705A7007F0922E4FEFF22A0
:08041A008F188E178D168C154A
:10042200E4F519F51AF51BFFFE7D207C41AB18AAF5
:1004320017A916A8151200031201478E1C8F1DAFB3
:1004420018AE17AD16AC151201478E1E8F1FC3E5ED
:100452001E6480948050107CFF7DFF1201F58E1E79
:100462008F1F7F2D120674AE1EAF1F7C007D0A12F5
:1004720002078F1AEF60062430FF120674E51A7520
:10048200F00AA4FEC3E51F9EF5192430FF1206747C
:100492007F2E120674AE1CAF1D7C007D0A1202076D
:1004A200ED2430F51BFF1206747F807E8402063C29
:0605AE008B158A16891767
:1005B400E4F518F519AB15AA16A91785198285183B
:1005C400831201C8FF3395E04F60247F0A7E001236
:1005D400063CAB15AA16A917851982851883120142
:0F05E400C8FF1206740519E51970CA051880C6FC
:0105F30022E5
:0306A7000204B298
:10000300EC4D6011E8497017ED33EC3304600DE4F7
:10001300FCFFFEFD22E933E8330470F80201B3125A
:10002300017E58046009E4CC24815006285009025B
:1000330001BD2840030201BAC0E0EB4A7044B98015
:1000430006D0E0FB0201A9EF4E701CBD8008EBFF58
:10005300EAFEE9FD80EBE98DF0A4FEE5F00200EC99
:10006300E9CDF9EAFEEBFFEF89F0A4FCE5F0CE89D8
:10007300F0A42EFFE435F0CD89F0A42DFEE435F095
:100083008067EF4E7005BD80D780C3EF8BF0A4ACC3
:10009300F0EE8BF0A42CFCE435F0F8EF8AF0A42CFE
:1000A300E5F038FCE433CB8DF0A42CFCE5F03BF811
:1000B300EE8AF0A42CFCE5F038F8E433CF89F0A401
:1000C3002CFCE5F038CF3400CE89F0A42FFFE5F007
:1000D3003EFEE433C98DF0A42EFEE5F039CD8AF05F
:1000E300A42FFFE5F03EFEE43DFD33D0E0FB5007D7
:1000F3000BBB000F0201BDEC2CFCEF33FFEE33FE14
:06010300ED33FD02019541
:1001090075F020800E75F010800575F0087D007E71
:10011900007F003392D530D50312023DEC334010F5
:10012900EF33FFEE33FEED33FDEC33FCD5F0ED227A
:0E013900E5F0247EA2D513CC92E7CDCEFF22B6
:10014700EDD2E7CD33EC3392D524814006E4FFFEB0
:10015700FDFC22FCE4CFCECDCC24E0501174FF800F
:10016700EDC3CC13CCCD13CDCE13CECF13CF0470AC
:07017700F030D5DE02023D6D
:10017E00E9D2E7C933E833F892D5EDD2E7CD33ECC7
:07018E0033FC5002B2D52240
:10019500EC30E7100FBF000C0EBE00080DBD0004CB
:1001A5000BEB6014A2D5EB13FCED92E7FD2274FF77
:1001B500FCFDFEFF22E480F8A2D574FF13FC7D80D0
:0301C500E480EFE4
:1001C800BB010CE58229F582E5833AF583E02250EC
:1001D80006E92582F8E622BBFE06E92582F8E22236
:0D01E800E58229F582E5833AF583E4932250
:1001F500EF8DF0A4A8F0CF8CF0A428CE8DF0A42E1E
:02020500FE22D7
:10020700C2D5EC30E709B2D5E4C39DFDE49CFCEE12
:1002170030E715B2D5E4C39FFFE49EFE12024BC33D
:10022700E49DFDE49CFC800312024B30D507C3E438
:060237009FFFE49EFE2281
:0E023D00C3E49FFFE49EFEE49DFDE49CFC22D2
:10024B00BC000BBE0029EF8DF084FFADF022E4CC97
:10025B00F875F008EF2FFFEE33FEEC33FCEE9DEC60
:10026B00984005FCEE9DFE0FD5F0E9E4CEFD22EDA6
:10027B00F8F5F0EE8420D21CFEADF075F008EF2FF0
:10028B00FFED33FD4007985006D5F0F222C398FDE1
:05029B000FD5F0EA227E
:00000001FF
