:03000000020800F3
:0C080000787FE4F6D8FD758139020847C6
:1009DC00012D00012A00013800012B00012C7001AF
:0E09EC0029010A2E3F065B4F666D7D077F6F67
:1009FB00120A3A7FA01208E5120A0BE4FF1208E56F
:070A0B00D2A10000C2A122EC
:0B0A3A00D2A0D2A10000C2A0C2A122E5
:0B0A4500C2A0D2A10000D2A0C2A122DA
:1008E500E4F52DE52DFD3395E0FCC3ED9408EC64AE
:1008F5008094805019EFC4131313540124FF92A060
:10090500EF25E0FFD2A10000C2A1052D80D5A2A050
:050915009200C2A022C7
:10091A00E4FFD2A0F52DE52DFD3395E0FCC3ED945F
:10092A0008EC648094805012EF25E0FFD2A1000009
:0C093A0030A0010FC2A1052D80DCC2A07E
:01094600228E
:100A12001209FBAF2C1208E5120A0B120A457F0AD3
:050A22007E000209BC8A
:100999001209FB120A3A7FA11208E5120A0B120981
:1009A9001A8F08120A0B120A457F0A7E001209BC27
:0209B900AF0885
:0109BB002219
:1009BC00E4FDFCC3ED9FEC9E5015E4FBFA0BBB0071
:0F09CC00010ABA04F8BBFBF50DBD00010C80E475
:0109DB0022F9
:100A2700758901758CF7758A15D28C75A880D2A93E
:030A3700D28D223B
:10097400120A271209998F2C120947E5296401707C
:10098400FA120A127F0A7E001209BCAF2C12094720
:05099400E4F52980E6F6
:10094700753902E5393395E0C364809480401DEF23
:1009570075F00A84742E25F0F8E6FE74212539F81F
:0D096700A606EF75F00A84FF153980D7222F
:03000B0002088C5C
:10088C00C0E0C0D075D000C000C006C007758CF0A9
:10089C00758A1543A01CE52B25E025E0F452A074C5
:1008AC0021252BF8E6F580052BAF2BEF3395E0FED9
:1008BC00EF64034E7004F52B0538AF38EF3395E039
:1008CC00FEEF64644E7007052CF538752901D007CE
:0908DC00D006D000D0D0D0E032EB
:10080C00020974E493A3F8E493A34003F68001F285
:10081C0008DFF48029E493A3F85407240CC8C333ED
:10082C00C4540F4420C8834004F456800146F6DFBC
:10083C00E4800B01020408102040809009DCE47E67
:10084C00019360BCA3FF543F30E509541FFEE493B1
:10085C00A360010ECF54C025E060A840B8E493A378
:10086C00FAE493A3F8E493A3C8C582C8CAC583CAA3
:10087C00F0A3C8C582C8CAC583CADFE9DEE780BE5B
:0109FA0000FC
:00000001FF
