:03000000020A3AB7
:0C0A3A00787FE4F6D8FD758140020A8147
:100D1F002E0054656D707261747572652069733A37
:040D2F00002043005D
:0A0BA600022C0000013000013100B4
:100D0400D2B77F087E00120D3AC2B77F417E00122F
:0B0D14000D3AD2B77F147E00020D3AAA
:070D3300120C557F0A7E003F
:0B0D3A00EF1FAC0670011E4C70F6228B
:100BDE00E4FB7D08EDD39400748094804017C2B777
:100BEE00EB13FBD2B730B7034303807F047E0012B2
:070BFE000D3A1D80DFAF037B
:010C050022CC
:020C5500AD07E9
:100C57007B08EBD39400748094804017C2B7ED13E0
:100C670092B77F057E00120D3AD2B7EDA2E713FDCA
:030C77001B80DF00
:010C7A002257
:100AC600120D047FCC120C557F44120D33120D0407
:100AD6007FCC120C557FBE120D33120BDE8F3112F6
:100AE6000BDE8F30EFFE7C00E42531FFEC3EC4F8D0
:100AF60054F0C8EFC4540F48F533FF7E007D091249
:0D0B060008FC7D05120963EF2420F529226B
:100B1300EF75F064842430F52FEF75F06484E5F00D
:100B230075F00A842430F52EEF75F00A84E5F0247D
:100B330030F52BEFF52AC3952A2430F532AF2F1267
:100B43000D55AF2E120D55AF2B120D557BFF7A0DA0
:0A0B5300791F120CA0AF32020D55FD
:03000B000209994E
:10099900C0E0C0F0C083C082C0D075D000C000C024
:1009A90001C002C003C004C005C006C007052DE58B
:1009B9002D7002052C64907004E52C6401702A7F67
:1009C90080120D457BFF7A0D7921120CA07FC01290
:1009D9000D45120AC6AF33120B137BFF7A0D79301E
:1009E900120CA0752C00752D00AF33120CE51208FE
:1009F90000C3E533941C748094804012C2957F0231
:100A09007E00120C0ED2957F027E00120C0ED2953A
:100A1900758CFC758A18D007D006D005D004D00390
:100A2900D002D001D000D0D0D082D083D0F0D0E095
:010A3900328A
:100C7B00120CC575A882758921759850758DFD75F7
:100C8B008CFC758A18D28CD28EAF337E00120B5D22
:050C9B00120C2E80F494
:100CC5007F147E00120C0E7F38120D457F0E120D1B
:100CD500457F06120D457F01120D457F80020D45AA
:100CA0008B3E8A3F8940AB3EAA3FA9401208E360D1
:100CB000130540E5407002053F14F91208E3FF12E6
:050CC0000D5580E22249
:100D45008F80C2A6120C06C2A77F057E00020C0E7C
:0A0D55008F80D2A6120C06C2A7225E
:080C0600C2A5D2A77F017E0008
:100C0E00E4FDFCC3ED9FEC9E5015E4FBFA0BBB001C
:0F0C1E00010AEB64704A70F50DBD00010C80E413
:010C2D0022A4
:100BB0000114000808000C000800040000141500CF
:100BC0003F0006005B004F0066006D007D000700DF
:030BD0007F00673C
:100CE5007D037C00EF601775F00A8474102DF8A65B
:0E0CF500F0EF75F00A84FFED1D70E91C80E63B
:010D030022CD
:1008000074102514F8E6B40A0040030208D29008D8
:1008100015F8282873020833020844020854020815
:10082000640208740208840208940208A40208B44E
:100830000208C4E51425E02408F808E6F5A08516AA
:10084000800208D2E51425E02408F808E6F5A08522
:100850001880807EE51425E02408F808E6F5A085D8
:100860001A80806EE51425E02408F808E6F5A085D6
:100870001C80805EE51425E02408F808E6F5A085D4
:100880001E80804EE51425E02408F808E6F5A085D2
:100890002080803EE51425E02408F808E6F5A085D0
:1008A0002280802EE51425E02408F808E6F5A085CE
:1008B0002480801EE51425E02408F808E6F5A085CC
:1008C0002680800EE51425E02408F808E6F5A085CA
:1008D00028800514D3E5149403748094804003E4C5
:0308E000F51422EA
:0A0BD30001370005380000000000A3
:100B5D00AB07AA067C007D6412090EEF2430F53434
:100B6D007C007D64AF03AE0212090E7E007F0ACFBA
:100B7D00CDCFCECCCE12090EEF2430F536AE02AF6E
:100B8D00037C007D0A12090EED2430F535853438CD
:090B9D00853639F53A753B0A2250
:100C2E00E4F53DC3E53D9406748094805018743805
:100C3E00253DF8E6F5993099FDC2997F647E001244
:070C4E000C0E053D80DD22C4
:100A4600020C7BE493A3F8E493A34003F68001F23F
:100A560008DFF48029E493A3F85407240CC8C333B1
:100A6600C4540F4420C8834004F456800146F6DF80
:100A7600E4800B0102040810204080900BA6E47E5F
:100A8600019360BCA3FF543F30E509541FFEE49375
:100A9600A360010ECF54C025E060A840B8E493A33C
:100AA600FAE493A3F8E493A3C8C582C8CAC583CA67
:100AB600F0A3C8C582C8CAC583CADFE9DEE780BE1F
:010BDD000017
:1008E300BB010689828A83E0225002E722BBFE0213
:0908F300E32289828A83E4932246
:1008FC00EF8DF0A4A8F0CF8CF0A428CE8DF0A42E10
:02090C00FE22C9
:10090E00BC000BBE0029EF8DF084FFADF022E4CCCD
:10091E00F875F008EF2FFFEE33FEEC33FCEE9DEC96
:10092E00984005FCEE9DFE0FD5F0E9E4CEFD22EDDC
:10093E00F8F5F0EE8420D21CFEADF075F008EF2F26
:10094E00FFED33FD4007985006D5F0F222C398FD17
:05095E000FD5F0EA22B4
:10096300C2D5EC30E709B2D5E4C39DFDE49CFCEEAF
:1009730030E715B2D5E4C39FFFE49EFE12090EC310
:10098300E49DFDE49CFC800312090E30D507C3E40B
:060993009FFFE49EFE221E
:00000001FF
