:03000000020800F3
:0C080000787FE4F6D8FD75810D020847F2
:0C08F600020A000002080000020C0000D2
:03000B0002088C5C
:10088C00C0E0758CDC758A00E50B450A702030B130
:10089C00170509E50970020508640A4508700FB2CE
:1008AC00A0F50A750B018006750800750900E50BAB
:1008BC006401450A701D20B114050DE50D7002058B
:1008CC000C640A450C700CF50AF50B8006750C00CF
:0608DC00750D00D0E032B2
:1008E200758901758CDCE4F58A75A88FD2AFC2A038
:0408F200D28C80FE26
:10080C000208E2E493A3F8E493A34003F68001F218
:10081C0008DFF48029E493A3F85407240CC8C333ED
:10082C00C4540F4420C8834004F456800146F6DFBC
:10083C00E4800B01020408102040809008F6E47E4E
:10084C00019360BCA3FF543F30E509541FFEE493B1
:10085C00A360010ECF54C025E060A840B8E493A378
:10086C00FAE493A3F8E493A3C8C582C8CAC583CAA3
:10087C00F0A3C8C582C8CAC583CADFE9DEE780BE5B
:0109020000F4
:00000001FF
