:030000000208F6FD
:0C08F600787FE4F6D8FD75811A02093DF8
:0D0A000048656C6F20776F726C640A0D0002
:0C09F300021500000219000002170000AD
:1009820078087C007D007BFF7A0A79007E007F0D6B
:100992001208D0758920758DFD759850D28EE4F5B8
:1009A20019F51A7408251AF8E6F5993099FDC299D5
:1009B200051AE51A70020519640E451970E57FC81B
:0509C2007E000209C7E0
:1009C700E4F515F516C3E5169FE5159E501DE4F5EC
:1009D70017F5180518E518700205176472451770A2
:0C09E700F20516E51670DE051580DA2218
:10090200020982E493A3F8E493A34003F68001F280
:1009120008DFF48029E493A3F85407240CC8C333F6
:10092200C4540F4420C8834004F456800146F6DFC5
:10093200E4800B01020408102040809009F3E47E59
:10094200019360BCA3FF543F30E509541FFEE493BA
:10095200A360010ECF54C025E060A840B8E493A381
:10096200FAE493A3F8E493A3C8C582C8CAC583CAAC
:10097200F0A3C8C582C8CAC583CADFE9DEE780BE64
:0109FF0000F7
:10080000E709F608DFFA8046E709F208DFFA803EDA
:1008100088828C83E709F0A3DFFA8032E309F608C7
:10082000DFFA8078E309F208DFFA807088828C832F
:10083000E309F0A3DFFA806489828A83E0A3F608E3
:10084000DFFA805889828A83E0A3F208DFFA804CBD
:1008500080D280FA80C680D4806980F28033801094
:1008600080A680EA809A80A880DA80E280CA8033FD
:1008700089828A83ECFAE493A3C8C582C8CCC58375
:10088000CCF0A3C8C582C8CCC583CCDFE9DEE78045
:100890000D89828A83E493A3F608DFF9ECFAA9F0C4
:1008A000EDFB2289828A83ECFAE0A3C8C582C8CC1A
:1008B000C583CCF0A3C8C582C8CCC583CCDFEADE33
:1008C000E880DB89828A83E493A3F208DFF980CC95
:1008D00088F0EF60010E4E60C388F0ED2402B4048E
:1008E0000050B9F582EB2402B4040050AF23234535
:0608F00082239008507302
:00000001FF
