:030000000209DE14
:0C09DE00787FE4F6D8FD75812002095EE8
:0E09D00073656E64203A0052656164203A003F
:10095E0012093A7BFF7A0979D01209157FC0120964
:10096E00B07BFF7A0979D7120915120863120800B5
:02097E0080F8FF
:100999001209EA7FA012089B1209A9E4FF12089B19
:0709A900D2A10000C2A1224F
:0B09EA00D2A0D2A10000C2A0C2A12236
:0B09F500C2A0D2A10000D2A0C2A1222B
:10089B00E4FBFAEFC4131313540124FF92A0EF25CA
:1008AB00E0FFD2A10000C2A10BBB00010AEB640860
:0908BB004A70E0A2A09200C2A064
:0108C4002211
:1008C500D2A0E4F508FFFEE50825E0F508D2A10071
:1008D5000030A0020508C2A10FBF00010EEF640899
:0708E5004E70E4C2A0AF0851
:0108EC0022E9
:100863001209997F0912089B1209A97F0912089B93
:100873001209A91209F520001B7F647E001208F5F6
:100883007F861209B07F301209C07F871209B07FBB
:08089300300209C01209A9227C
:100800001209991209EA7FA112089B1209A912087C
:10081000C58F0A1209A91208C58F0B1209A912095E
:10082000F57F647E001208F57FC61209B0C3E50AA1
:10083000940B748094805007E50A2430FF8002AF47
:100840000A1209C07FC71209B0C3E50A940B74806D
:1008500094805007E50B2430FF8002AF0B1209C0D3
:030860000209A9E1
:10093A007F381209B07F057E001208F57F0F120971
:10094A00B07F057E001208F57F801209B07F057E10
:04095A00000208F59A
:100915008B0C8A0D890EAB0CAA0DA90E12098060ED
:1009250013050EE50E7002050D14F9120980FF126C
:0509350009C080E22270
:1009B0008F80C2A61208EDC2A77F057E000208F54F
:1009C0008F80D2A61208EDC2A77F057E000208F52F
:0808ED00C2A5D2A77F017E0025
:1008F500E4FDFCC3ED9FEC9E5015E4FBFA0BBB0039
:0F090500010ABA04F8BBFBF50DBD00010C80E43C
:0109140022C0
:10098000BB010689828A83E0225002E722BBFE0275
:09099000E32289828A83E49322A8
:00000001FF
