:030000000203BA3E
:0C03BA00787FE4F6D8FD75814D02040147
:1006FF002E0054656D707261747572652069733A5E
:10070F0000204300456E74657220546865727368EB
:05071F006F6C64200076
:1006050002180000012300012400013A00053D0005
:1006150000000000011A00080A000C000800040090
:10062500001426003F0006005B004F0066006D00C9
:070635007D0007007F006754
:10078700D2B77F087E001207D1C2B77F417E001221
:0B07970007D1D2B77F147E000207D10B
:0707CA001206B47F0A7E0055
:0B07D100EF1FAC0670011E4C70F622FA
:10063D00E4FB7D08EDD39400748094804017C2B71D
:10064D00EB13FBD2B730B7034303807F047E001258
:07065D0007D11D80DFAF0390
:010664002273
:0206B400AD0790
:1006B6007B08EBD39400748094804017C2B7ED1387
:1006C60092B77F057E001207D1D2B7EDA2E713FDE0
:0306D6001B80DFA7
:0106D90022FE
:100525001207877FCC1206B47F441207CA120787C9
:100535007FCC1206B47FBE1207CA12063D8F241265
:10054500063D8F23EFFE7C00E42524FFEC3EC4F836
:1005550054F0C8EFC4540F48F543FF7E007D0912DF
:0D05650002847D051202EBEF2420F5082230
:10057200EF75F064842430F521EF75F06484E5F0C2
:1005820075F00A842430F51FEF75F00A84E5F02433
:1005920030F513EFF512C395122430F525AF211271
:1005A20007ECAF1F1207ECAF131207EC7BFF7A06C2
:0A05B20079FF1206DAAF250207EC0C
:03000B00020321CC
:10032100C0E0C0F0C083C082C0D075D000C000C0A2
:1003310001C002C003C004C005C006C0070519E51D
:10034100197002051864907004E5186401702A7F21
:10035100801207DC7BFF7A0779011206DA7FC0126F
:1003610007DC120525AF431205727BFF7A0779106E
:100371001206DA751800751900AF431207681201E9
:1003810088C3E543953CE4953B400BC2957F027ED3
:100391000012066DD295D295758CFC758A18D0071E
:1003A100D006D005D004D003D002D001D000D0D0E7
:0903B100D082D083D0F0D0E032FC
:100446001207487BFF7A0779131206DA7FC0120774
:10045600DC12000EEF3395E0F5448F451204BE8E94
:100466001D8F1E12000EEF3395E0F5468F471204DE
:10047600BE8E1B8F1CAE1DAF1E7C007D0A12028431
:10048600E51C2FF53CE51B3EF53B7F381207DC7F6C
:10049600417E001207D175A882758921759850751D
:1004A6008DFD758CFC758A18D28CD28EAF437E007A
:0804B6001205BC12068D80F452
:100748007F147E0012066D7F381207DC7F0E1207B9
:10075800DC7F061207DC7F011207DC7F800207DCE2
:1006DA008B4B8A4C894DAB4BAA4CA94D12026B60CD
:1006EA0013054DE54D7002054C14F912026BFF1209
:0506FA0007EC80E22284
:1007DC008F80C2A6120665C2A77F057E0002066D39
:0A07EC008F80D2A6120665C2A72274
:08066500C2A5D2A77F017E00AF
:10066D00E4FDFCC3ED9FEC9E5015E4FBFA0BBB00C3
:0F067D00010AEB64704A70F50DBD00010C80E4BA
:01068C00224B
:100768007D037C00EF601775F00A8474142DF8A6D9
:0E077800F0EF75F00A84FFED1D70E91C80E6BD
:010786002250
:100188007414251AF8E6B40A00400302025A9001D2
:100198009DF82828730201BB0201CC0201DC020190
:1001A800EC0201FC02020C02021C02022C02023CBC
:1001B80002024CE51A25E0240AF808E6F5A085278E
:1001C8008002025AE51A25E0240AF808E6F5A08517
:1001D8002980807EE51A25E0240AF808E6F5A0853E
:1001E8002B80806EE51A25E0240AF808E6F5A0853C
:1001F8002D80805EE51A25E0240AF808E6F5A0853A
:100208002F80804EE51A25E0240AF808E6F5A08537
:100218003180803EE51A25E0240AF808E6F5A08535
:100228003380802EE51A25E0240AF808E6F5A08533
:100238003580801EE51A25E0240AF808E6F5A08531
:100248003780800EE51A25E0240AF808E6F5A0852F
:100258003980051AD3E51A9403748094804003E426
:03026800F51A2262
:1005BC00AB07AA067C007D64120296EF2430F50985
:1005CC007C007D64AF03AE021202967E007F0ACFE0
:1005DC00CDCFCECCCE120296EF2430F522AE02AFA8
:1005EC00037C007D0A120296ED2430F52085093D2E
:0905FC0085223EF53F75400A22FC
:10068D00E4F542C3E5429406748094805018743D9D
:10069D002542F8E6F5993099FDC2997F647E0012E6
:0706AD00066D054280DD220D
:10000E007F73EF64307042EF6431703DEF64327095
:10001E0038EF64337033EF6434702EEF643570292B
:10002E00EF64367024EF6437701FEF6438701ABFB8
:10003E003917BF2B14BF2D11BF3D0EBF240BBF2A86
:10004E0008EF642F7003020185C290D291D292D232
:10005E009320940E20900B7F2F1207B61207247F49
:10006E002F2220950620900302014120960E20900B
:10007E000B7F2D1207B61207247F2D2220970E20FC
:10008E00900B7F2B1207B61207247F2B22D290C221
:10009E0091D292D29320940E20910B7F3D1207B6EF
:1000AE001207247F3D2220950E20910B7F391207D7
:1000BE00B61207247F392220960E20910B7F36121E
:1000CE0007B61207247F362220970E20910B7F331E
:1000DE001207B61207247F3322D290D291C292D247
:1000EE009320940E20920B7F301207B61207247FB6
:1000FE00302220950E20920B7F381207B61207245D
:10010E007F382220960E20920B7F351207B61207EB
:10011E00247F352220970E20920B7F321207B612C3
:10012E0007247F3222D290D291D292C29320940E83
:10013E0020930B7F2A1207B61207247F2A222095BE
:10014E000E20930B7F371207B61207247F3722201B
:10015E00960E20930B7F341207B61207247F34229B
:10016E003097030200103093030200107F31120704
:09017E00B61207247F31227F0034
:010187002255
:040724007F107E279D
:10072800E4FDFCC3ED9FEC9E5015E4FBFA0BBB0007
:0F073800010AEB64054A70F50DBD00010C80E469
:01074700228F
:1007A2008F80C2A6C2A5D2A77F327E00120728C2BE
:0407B200A70207286B
:1007B6008F80D2A6C2A5D2A77F327E00120728C29A
:0407C600A702072857
:1004BE00EF24D0B40A00505B9004D475F003A4C5A9
:1004CE008325F0C583730204F20204F40204F902D8
:1004DE0004FE02050302050802050D0205120205BF
:1004EE001702051C802D7E007F01227E007F0222D6
:1004FE007E007F03227E007F04227E007F05227E07
:10050E00007F06227E007F07227E007F08227E006B
:07051E007F0922E4FEFF2229
:1003C600020446E493A3F8E493A34003F68001F203
:1003D60008DFF48029E493A3F85407240CC8C33338
:1003E600C4540F4420C8834004F456800146F6DF07
:1003F600E4800B0102040810204080900605E47E8C
:10040600019360BCA3FF543F30E509541FFEE493FB
:10041600A360010ECF54C025E060A840B8E493A3C2
:10042600FAE493A3F8E493A3C8C582C8CAC583CAED
:10043600F0A3C8C582C8CAC583CADFE9DEE780BEA5
:01063C0000BD
:10026B00BB010689828A83E0225002E722BBFE0291
:09027B00E32289828A83E49322C4
:10028400EF8DF0A4A8F0CF8CF0A428CE8DF0A42E8E
:02029400FE2248
:10029600BC000BBE0029EF8DF084FFADF022E4CC4C
:1002A600F875F008EF2FFFEE33FEEC33FCEE9DEC15
:1002B600984005FCEE9DFE0FD5F0E9E4CEFD22ED5B
:1002C600F8F5F0EE8420D21CFEADF075F008EF2FA5
:1002D600FFED33FD4007985006D5F0F222C398FD96
:0502E6000FD5F0EA2233
:1002EB00C2D5EC30E709B2D5E4C39DFDE49CFCEE2E
:1002FB0030E715B2D5E4C39FFFE49EFE120296C30E
:10030B00E49DFDE49CFC800312029630D507C3E408
:06031B009FFFE49EFE229C
:00000001FF
